{"abi":[{"type":"function","name":"runStateUpdatesCall","inputs":[{"name":"types","type":"uint8[]","internalType":"enum StateUpdateType[]"},{"name":"args","type":"bytes[]","internalType":"bytes[]"}],"outputs":[],"stateMutability":"nonpayable"},{"type":"error","name":"InvalidArguments","inputs":[]},{"type":"error","name":"RevertingContext","inputs":[{"name":"target","type":"address","internalType":"address"},{"name":"revertData","type":"bytes","internalType":"bytes"}]}],"bytecode":{"object":"0x6080604052348015600e575f5ffd5b50610cc58061001c5f395ff3fe608060405234801561000f575f5ffd5b5060043610610029575f3560e01c80637a888dbc1461002d575b5f5ffd5b61004760048036038101906100429190610719565b610049565b005b6100538282610057565b5050565b8051825114610092576040517f5f6f132c00000000000000000000000000000000000000000000000000000000815260040160405180910390fd5b5f5f90505b8251811015610402575f8382815181106100b4576100b361078f565b5b602002602001015190505f8383815181106100d2576100d161078f565b5b602002602001015190505f60068111156100ef576100ee6107bc565b5b826006811115610102576101016107bc565b5b0361012b575f5f8280602001905181019061011d919061081c565b9150915080825550506103f3565b6001600681111561013f5761013e6107bc565b5b826006811115610152576101516107bc565b5b03610230575f5f5f8380602001905181019061016e9190610963565b9250925092505f5f5a90505f5f845160208601878986f1915081610226575f3d90505f8167ffffffffffffffff8111156101ab576101aa61042c565b5b6040519080825280601f01601f1916602001820160405280156101dd5781602001600182028036833780820191505090505b509050815f602083013e86816040517faa86ecee00000000000000000000000000000000000000000000000000000000815260040161021d929190610a41565b60405180910390fd5b50505050506103f2565b60026006811115610244576102436107bc565b5b826006811115610257576102566107bc565b5b03610280575f818060200190518101906102719190610a6f565b9050805160208201a0506103f1565b60036006811115610294576102936107bc565b5b8260068111156102a7576102a66107bc565b5b036102d5575f5f828060200190518101906102c29190610ab6565b9150915080825160208401a150506103f0565b600460068111156102e9576102e86107bc565b5b8260068111156102fc576102fb6107bc565b5b0361032f575f5f5f838060200190518101906103189190610b10565b9250925092508082845160208601a25050506103ef565b60056006811115610343576103426107bc565b5b826006811115610356576103556107bc565b5b0361038e575f5f5f5f848060200190518101906103739190610b7c565b9350935093509350808284865160208801a3505050506103ee565b6006808111156103a1576103a06107bc565b5b8260068111156103b4576103b36107bc565b5b036103ed575f5f5f5f5f858060200190518101906103d29190610bfc565b9450945094509450945080828486885160208a01a450505050505b5b5b5b5b5b5b50508080600101915050610097565b505050565b5f604051905090565b5f5ffd5b5f5ffd5b5f5ffd5b5f601f19601f8301169050919050565b7f4e487b71000000000000000000000000000000000000000000000000000000005f52604160045260245ffd5b6104628261041c565b810181811067ffffffffffffffff821117156104815761048061042c565b5b80604052505050565b5f610493610407565b905061049f8282610459565b919050565b5f67ffffffffffffffff8211156104be576104bd61042c565b5b602082029050602081019050919050565b5f5ffd5b600781106104df575f5ffd5b50565b5f813590506104f0816104d3565b92915050565b5f610508610503846104a4565b61048a565b9050808382526020820190506020840283018581111561052b5761052a6104cf565b5b835b81811015610554578061054088826104e2565b84526020840193505060208101905061052d565b5050509392505050565b5f82601f83011261057257610571610418565b5b81356105828482602086016104f6565b91505092915050565b5f67ffffffffffffffff8211156105a5576105a461042c565b5b602082029050602081019050919050565b5f5ffd5b5f67ffffffffffffffff8211156105d4576105d361042c565b5b6105dd8261041c565b9050602081019050919050565b828183375f83830152505050565b5f61060a610605846105ba565b61048a565b905082815260208101848484011115610626576106256105b6565b5b6106318482856105ea565b509392505050565b5f82601f83011261064d5761064c610418565b5b813561065d8482602086016105f8565b91505092915050565b5f6106786106738461058b565b61048a565b9050808382526020820190506020840283018581111561069b5761069a6104cf565b5b835b818110156106e257803567ffffffffffffffff8111156106c0576106bf610418565b5b8086016106cd8982610639565b8552602085019450505060208101905061069d565b5050509392505050565b5f82601f830112610700576106ff610418565b5b8135610710848260208601610666565b91505092915050565b5f5f6040838503121561072f5761072e610410565b5b5f83013567ffffffffffffffff81111561074c5761074b610414565b5b6107588582860161055e565b925050602083013567ffffffffffffffff81111561077957610778610414565b5b610785858286016106ec565b9150509250929050565b7f4e487b71000000000000000000000000000000000000000000000000000000005f52603260045260245ffd5b7f4e487b71000000000000000000000000000000000000000000000000000000005f52602160045260245ffd5b5f819050919050565b6107fb816107e9565b8114610805575f5ffd5b50565b5f81519050610816816107f2565b92915050565b5f5f6040838503121561083257610831610410565b5b5f61083f85828601610808565b925050602061085085828601610808565b9150509250929050565b5f73ffffffffffffffffffffffffffffffffffffffff82169050919050565b5f6108838261085a565b9050919050565b61089381610879565b811461089d575f5ffd5b50565b5f815190506108ae8161088a565b92915050565b5f819050919050565b6108c6816108b4565b81146108d0575f5ffd5b50565b5f815190506108e1816108bd565b92915050565b8281835e5f83830152505050565b5f610907610902846105ba565b61048a565b905082815260208101848484011115610923576109226105b6565b5b61092e8482856108e7565b509392505050565b5f82601f83011261094a57610949610418565b5b815161095a8482602086016108f5565b91505092915050565b5f5f5f6060848603121561097a57610979610410565b5b5f610987868287016108a0565b9350506020610998868287016108d3565b925050604084015167ffffffffffffffff8111156109b9576109b8610414565b5b6109c586828701610936565b9150509250925092565b5f6109d98261085a565b9050919050565b6109e9816109cf565b82525050565b5f81519050919050565b5f82825260208201905092915050565b5f610a13826109ef565b610a1d81856109f9565b9350610a2d8185602086016108e7565b610a368161041c565b840191505092915050565b5f604082019050610a545f8301856109e0565b8181036020830152610a668184610a09565b90509392505050565b5f60208284031215610a8457610a83610410565b5b5f82015167ffffffffffffffff811115610aa157610aa0610414565b5b610aad84828501610936565b91505092915050565b5f5f60408385031215610acc57610acb610410565b5b5f83015167ffffffffffffffff811115610ae957610ae8610414565b5b610af585828601610936565b9250506020610b0685828601610808565b9150509250929050565b5f5f5f60608486031215610b2757610b26610410565b5b5f84015167ffffffffffffffff811115610b4457610b43610414565b5b610b5086828701610936565b9350506020610b6186828701610808565b9250506040610b7286828701610808565b9150509250925092565b5f5f5f5f60808587031215610b9457610b93610410565b5b5f85015167ffffffffffffffff811115610bb157610bb0610414565b5b610bbd87828801610936565b9450506020610bce87828801610808565b9350506040610bdf87828801610808565b9250506060610bf087828801610808565b91505092959194509250565b5f5f5f5f5f60a08688031215610c1557610c14610410565b5b5f86015167ffffffffffffffff811115610c3257610c31610414565b5b610c3e88828901610936565b9550506020610c4f88828901610808565b9450506040610c6088828901610808565b9350506060610c7188828901610808565b9250506080610c8288828901610808565b915050929550929590935056fea2646970667358221220bab2dda96c1ab6dd9df9b6cd4ed120835b7fddf38e7f81e3a83a69fcd2c42ac364736f6c634300081e0033","linkReferences":{}},"methodIdentifiers":{"runStateUpdatesCall(uint8[],bytes[])":"7a888dbc"},"id":18}