{"abi":[{"type":"constructor","inputs":[{"name":"_slashingRegistryCoordinator","type":"address","internalType":"contract ISlashingRegistryCoordinator"}],"stateMutability":"nonpayable"},{"type":"function","name":"apkHistory","inputs":[{"name":"quorumNumber","type":"uint8","internalType":"uint8"},{"name":"","type":"uint256","internalType":"uint256"}],"outputs":[{"name":"apkHash","type":"bytes24","internalType":"bytes24"},{"name":"updateBlockNumber","type":"uint32","internalType":"uint32"},{"name":"nextUpdateBlockNumber","type":"uint32","internalType":"uint32"}],"stateMutability":"view"},{"type":"function","name":"currentApk","inputs":[{"name":"quorumNumber","type":"uint8","internalType":"uint8"}],"outputs":[{"name":"X","type":"uint256","internalType":"uint256"},{"name":"Y","type":"uint256","internalType":"uint256"}],"stateMutability":"view"},{"type":"function","name":"deregisterOperator","inputs":[{"name":"operator","type":"address","internalType":"address"},{"name":"quorumNumbers","type":"bytes","internalType":"bytes"}],"outputs":[],"stateMutability":"nonpayable"},{"type":"function","name":"getApk","inputs":[{"name":"quorumNumber","type":"uint8","internalType":"uint8"}],"outputs":[{"name":"","type":"tuple","internalType":"struct BN254.G1Point","components":[{"name":"X","type":"uint256","internalType":"uint256"},{"name":"Y","type":"uint256","internalType":"uint256"}]}],"stateMutability":"view"},{"type":"function","name":"getApkHashAtBlockNumberAndIndex","inputs":[{"name":"quorumNumber","type":"uint8","internalType":"uint8"},{"name":"blockNumber","type":"uint32","internalType":"uint32"},{"name":"index","type":"uint256","internalType":"uint256"}],"outputs":[{"name":"","type":"bytes24","internalType":"bytes24"}],"stateMutability":"view"},{"type":"function","name":"getApkHistoryLength","inputs":[{"name":"quorumNumber","type":"uint8","internalType":"uint8"}],"outputs":[{"name":"","type":"uint32","internalType":"uint32"}],"stateMutability":"view"},{"type":"function","name":"getApkIndicesAtBlockNumber","inputs":[{"name":"quorumNumbers","type":"bytes","internalType":"bytes"},{"name":"blockNumber","type":"uint256","internalType":"uint256"}],"outputs":[{"name":"","type":"uint32[]","internalType":"uint32[]"}],"stateMutability":"view"},{"type":"function","name":"getApkUpdateAtIndex","inputs":[{"name":"quorumNumber","type":"uint8","internalType":"uint8"},{"name":"index","type":"uint256","internalType":"uint256"}],"outputs":[{"name":"","type":"tuple","internalType":"struct IBLSApkRegistryTypes.ApkUpdate","components":[{"name":"apkHash","type":"bytes24","internalType":"bytes24"},{"name":"updateBlockNumber","type":"uint32","internalType":"uint32"},{"name":"nextUpdateBlockNumber","type":"uint32","internalType":"uint32"}]}],"stateMutability":"view"},{"type":"function","name":"getOperatorFromPubkeyHash","inputs":[{"name":"pubkeyHash","type":"bytes32","internalType":"bytes32"}],"outputs":[{"name":"","type":"address","internalType":"address"}],"stateMutability":"view"},{"type":"function","name":"getOperatorId","inputs":[{"name":"operator","type":"address","internalType":"address"}],"outputs":[{"name":"","type":"bytes32","internalType":"bytes32"}],"stateMutability":"view"},{"type":"function","name":"getOperatorPubkeyG2","inputs":[{"name":"operator","type":"address","internalType":"address"}],"outputs":[{"name":"","type":"tuple","internalType":"struct BN254.G2Point","components":[{"name":"X","type":"uint256[2]","internalType":"uint256[2]"},{"name":"Y","type":"uint256[2]","internalType":"uint256[2]"}]}],"stateMutability":"view"},{"type":"function","name":"getOrRegisterOperatorId","inputs":[{"name":"operator","type":"address","internalType":"address"},{"name":"params","type":"tuple","internalType":"struct IBLSApkRegistryTypes.PubkeyRegistrationParams","components":[{"name":"pubkeyRegistrationSignature","type":"tuple","internalType":"struct BN254.G1Point","components":[{"name":"X","type":"uint256","internalType":"uint256"},{"name":"Y","type":"uint256","internalType":"uint256"}]},{"name":"pubkeyG1","type":"tuple","internalType":"struct BN254.G1Point","components":[{"name":"X","type":"uint256","internalType":"uint256"},{"name":"Y","type":"uint256","internalType":"uint256"}]},{"name":"pubkeyG2","type":"tuple","internalType":"struct BN254.G2Point","components":[{"name":"X","type":"uint256[2]","internalType":"uint256[2]"},{"name":"Y","type":"uint256[2]","internalType":"uint256[2]"}]}]},{"name":"pubkeyRegistrationMessageHash","type":"tuple","internalType":"struct BN254.G1Point","components":[{"name":"X","type":"uint256","internalType":"uint256"},{"name":"Y","type":"uint256","internalType":"uint256"}]}],"outputs":[{"name":"operatorId","type":"bytes32","internalType":"bytes32"}],"stateMutability":"nonpayable"},{"type":"function","name":"getRegisteredPubkey","inputs":[{"name":"operator","type":"address","internalType":"address"}],"outputs":[{"name":"","type":"tuple","internalType":"struct BN254.G1Point","components":[{"name":"X","type":"uint256","internalType":"uint256"},{"name":"Y","type":"uint256","internalType":"uint256"}]},{"name":"","type":"bytes32","internalType":"bytes32"}],"stateMutability":"view"},{"type":"function","name":"initializeQuorum","inputs":[{"name":"quorumNumber","type":"uint8","internalType":"uint8"}],"outputs":[],"stateMutability":"nonpayable"},{"type":"function","name":"operatorToPubkey","inputs":[{"name":"operator","type":"address","internalType":"address"}],"outputs":[{"name":"X","type":"uint256","internalType":"uint256"},{"name":"Y","type":"uint256","internalType":"uint256"}],"stateMutability":"view"},{"type":"function","name":"operatorToPubkeyHash","inputs":[{"name":"operator","type":"address","internalType":"address"}],"outputs":[{"name":"operatorId","type":"bytes32","internalType":"bytes32"}],"stateMutability":"view"},{"type":"function","name":"pubkeyHashToOperator","inputs":[{"name":"pubkeyHash","type":"bytes32","internalType":"bytes32"}],"outputs":[{"name":"operator","type":"address","internalType":"address"}],"stateMutability":"view"},{"type":"function","name":"registerBLSPublicKey","inputs":[{"name":"operator","type":"address","internalType":"address"},{"name":"params","type":"tuple","internalType":"struct IBLSApkRegistryTypes.PubkeyRegistrationParams","components":[{"name":"pubkeyRegistrationSignature","type":"tuple","internalType":"struct BN254.G1Point","components":[{"name":"X","type":"uint256","internalType":"uint256"},{"name":"Y","type":"uint256","internalType":"uint256"}]},{"name":"pubkeyG1","type":"tuple","internalType":"struct BN254.G1Point","components":[{"name":"X","type":"uint256","internalType":"uint256"},{"name":"Y","type":"uint256","internalType":"uint256"}]},{"name":"pubkeyG2","type":"tuple","internalType":"struct BN254.G2Point","components":[{"name":"X","type":"uint256[2]","internalType":"uint256[2]"},{"name":"Y","type":"uint256[2]","internalType":"uint256[2]"}]}]},{"name":"pubkeyRegistrationMessageHash","type":"tuple","internalType":"struct BN254.G1Point","components":[{"name":"X","type":"uint256","internalType":"uint256"},{"name":"Y","type":"uint256","internalType":"uint256"}]}],"outputs":[{"name":"operatorId","type":"bytes32","internalType":"bytes32"}],"stateMutability":"nonpayable"},{"type":"function","name":"registerOperator","inputs":[{"name":"operator","type":"address","internalType":"address"},{"name":"quorumNumbers","type":"bytes","internalType":"bytes"}],"outputs":[],"stateMutability":"nonpayable"},{"type":"function","name":"registryCoordinator","inputs":[],"outputs":[{"name":"","type":"address","internalType":"address"}],"stateMutability":"view"},{"type":"function","name":"verifyAndRegisterG2PubkeyForOperator","inputs":[{"name":"operator","type":"address","internalType":"address"},{"name":"pubkeyG2","type":"tuple","internalType":"struct BN254.G2Point","components":[{"name":"X","type":"uint256[2]","internalType":"uint256[2]"},{"name":"Y","type":"uint256[2]","internalType":"uint256[2]"}]}],"outputs":[],"stateMutability":"nonpayable"},{"type":"event","name":"Initialized","inputs":[{"name":"version","type":"uint8","indexed":false,"internalType":"uint8"}],"anonymous":false},{"type":"event","name":"NewG2PubkeyRegistration","inputs":[{"name":"operator","type":"address","indexed":true,"internalType":"address"},{"name":"pubkeyG2","type":"tuple","indexed":false,"internalType":"struct BN254.G2Point","components":[{"name":"X","type":"uint256[2]","internalType":"uint256[2]"},{"name":"Y","type":"uint256[2]","internalType":"uint256[2]"}]}],"anonymous":false},{"type":"event","name":"NewPubkeyRegistration","inputs":[{"name":"operator","type":"address","indexed":true,"internalType":"address"},{"name":"pubkeyG1","type":"tuple","indexed":false,"internalType":"struct BN254.G1Point","components":[{"name":"X","type":"uint256","internalType":"uint256"},{"name":"Y","type":"uint256","internalType":"uint256"}]},{"name":"pubkeyG2","type":"tuple","indexed":false,"internalType":"struct BN254.G2Point","components":[{"name":"X","type":"uint256[2]","internalType":"uint256[2]"},{"name":"Y","type":"uint256[2]","internalType":"uint256[2]"}]}],"anonymous":false},{"type":"event","name":"OperatorAddedToQuorums","inputs":[{"name":"operator","type":"address","indexed":false,"internalType":"address"},{"name":"operatorId","type":"bytes32","indexed":false,"internalType":"bytes32"},{"name":"quorumNumbers","type":"bytes","indexed":false,"internalType":"bytes"}],"anonymous":false},{"type":"event","name":"OperatorRemovedFromQuorums","inputs":[{"name":"operator","type":"address","indexed":false,"internalType":"address"},{"name":"operatorId","type":"bytes32","indexed":false,"internalType":"bytes32"},{"name":"quorumNumbers","type":"bytes","indexed":false,"internalType":"bytes"}],"anonymous":false},{"type":"error","name":"BLSPubkeyAlreadyRegistered","inputs":[]},{"type":"error","name":"BlockNumberBeforeFirstUpdate","inputs":[]},{"type":"error","name":"BlockNumberNotLatest","inputs":[]},{"type":"error","name":"BlockNumberTooRecent","inputs":[]},{"type":"error","name":"ECAddFailed","inputs":[]},{"type":"error","name":"ECMulFailed","inputs":[]},{"type":"error","name":"ECPairingFailed","inputs":[]},{"type":"error","name":"G2PubkeyAlreadySet","inputs":[]},{"type":"error","name":"InvalidBLSSignatureOrPrivateKey","inputs":[]},{"type":"error","name":"OnlyRegistryCoordinator","inputs":[]},{"type":"error","name":"OnlyRegistryCoordinatorOwner","inputs":[]},{"type":"error","name":"OperatorAlreadyRegistered","inputs":[]},{"type":"error","name":"OperatorNotRegistered","inputs":[]},{"type":"error","name":"QuorumAlreadyExists","inputs":[]},{"type":"error","name":"QuorumDoesNotExist","inputs":[]},{"type":"error","name":"ZeroPubKey","inputs":[]}],"bytecode":{"object":"0x60a060405234801561000f575f5ffd5b50604051611ef9380380611ef983398101604081905261002e91610107565b6001600160a01b0381166080528061004461004b565b5050610134565b5f54610100900460ff16156100b65760405162461bcd60e51b815260206004820152602760248201527f496e697469616c697a61626c653a20636f6e747261637420697320696e697469604482015266616c697a696e6760c81b606482015260840160405180910390fd5b5f5460ff90811614610105575f805460ff191660ff9081179091556040519081527f7f26b83ff96e1f2b6a682f133852f6798a09c465da95921460cefb38474024989060200160405180910390a15b565b5f60208284031215610117575f5ffd5b81516001600160a01b038116811461012d575f5ffd5b9392505050565b608051611d9f61015a5f395f818161035701528181610eb901526114bd0152611d9f5ff3fe608060405234801561000f575f5ffd5b5060043610610131575f3560e01c806368bccaac116100b4578063bf79ce5811610079578063bf79ce5814610413578063d1a6465014610426578063d5254a8c14610439578063de29fac014610459578063e8bb9ae614610478578063f4e24fe5146104a0575f5ffd5b806368bccaac146103255780636d14a987146103525780637916cea6146103795780637ff81a87146103ba578063a3db80e2146103ed575f5ffd5b80633fb27952116100fa5780633fb279521461020a57806347b314e81461021d5780635f61a8841461025d578063605747d5146102b75780636716991114610305575f5ffd5b8062a1f4cb1461013557806303c5a6b61461017557806313542a4e1461019657806326d941f2146101be578063377ed99d146101d3575b5f5ffd5b61015b61014336600461175c565b60036020525f90815260409020805460019091015482565b604080519283526020830191909152015b60405180910390f35b610188610183366004611777565b6104b3565b60405190815260200161016c565b6101886101a436600461175c565b6001600160a01b03165f9081526001602052604090205490565b6101d16101cc3660046117e1565b6104f2565b005b6101f56101e13660046117e1565b60ff165f9081526004602052604090205490565b60405163ffffffff909116815260200161016c565b6101d1610218366004611868565b6105b2565b61024561022b36600461190f565b5f908152600260205260409020546001600160a01b031690565b6040516001600160a01b03909116815260200161016c565b6102aa61026b3660046117e1565b604080518082019091525f80825260208201525060ff165f90815260056020908152604091829020825180840190935280548352600101549082015290565b60405161016c9190611926565b6102ca6102c536600461193d565b61062e565b60408051825167ffffffffffffffff1916815260208084015163ffffffff90811691830191909152928201519092169082015260600161016c565b61031861031336600461175c565b6106bf565b60405161016c9190611987565b6103386103333660046119b2565b610753565b60405167ffffffffffffffff19909116815260200161016c565b6102457f000000000000000000000000000000000000000000000000000000000000000081565b61038c61038736600461193d565b610836565b6040805167ffffffffffffffff19909416845263ffffffff928316602085015291169082015260600161016c565b6103cd6103c836600461175c565b61087d565b60408051835181526020938401519381019390935282015260600161016c565b61015b6103fb3660046117e1565b60056020525f90815260409020805460019091015482565b610188610421366004611777565b6108f3565b6101d16104343660046119f6565b610bc8565b61044c610447366004611a34565b610caf565b60405161016c9190611aa6565b61018861046736600461175c565b60016020525f908152604090205481565b61024561048636600461190f565b60026020525f90815260409020546001600160a01b031681565b6101d16104ae366004611868565b610e47565b5f6104bc610eae565b506001600160a01b0383165f90815260016020526040812054908190036104eb576104e88484846108f3565b90505b9392505050565b6104fa610eae565b60ff81165f908152600460205260409020541561052a576040516310cda51760e21b815260040160405180910390fd5b60ff165f908152600460209081526040808320815160608101835284815263ffffffff4381168286019081528285018781528454600181018655948852959096209151919092018054955194518316600160e01b026001600160e01b0395909316600160c01b026001600160e01b03199096169190931c179390931791909116919091179055565b6105ba610eae565b5f6105c48361087d565b5090506105d18282610ef9565b7f73a2b7fb844724b971802ae9b15db094d4b7192df9d7350e14eb466b9b22eb4e83610611856001600160a01b03165f9081526001602052604090205490565b8460405161062193929190611aee565b60405180910390a1505050565b604080516060810182525f808252602080830182905282840182905260ff86168252600490529190912080548390811061066a5761066a611b39565b5f91825260209182902060408051606081018252919092015467ffffffffffffffff1981841b16825263ffffffff600160c01b8204811694830194909452600160e01b90049092169082015290505b92915050565b6106c7611689565b6001600160a01b0382165f9081526006602052604090819020815160808101835291829081018260028282826020028201915b8154815260200190600101908083116106fa57505050918352505060408051808201918290526020909201919060028481019182845b815481526020019060010190808311610730575050505050815250509050919050565b60ff83165f90815260046020526040812080548291908490811061077957610779611b39565b5f91825260209182902060408051606081018252919092015467ffffffffffffffff1981841b16825263ffffffff600160c01b82048116948301859052600160e01b9091048116928201929092529250851610156107ea57604051633d22884160e01b815260040160405180910390fd5b604081015163ffffffff1615806108105750806040015163ffffffff168463ffffffff16105b61082d57604051636fe02d4b60e01b815260040160405180910390fd5b51949350505050565b6004602052815f5260405f20818154811061084f575f80fd5b5f91825260209091200154604081901b925063ffffffff600160c01b820481169250600160e01b9091041683565b604080518082019091525f80825260208201526001600160a01b0382165f818152600360209081526040808320815180830183528154815260019182015481850152948452909152812054909190806108e9576040516325ec6c1f60e01b815260040160405180910390fd5b9094909350915050565b5f6108fc610eae565b5f61092861091236869003860160408701611b4d565b80515f9081526020918201519091526040902090565b90507fad3228b676f7d3cd4284a5443f17f1962b36e491b30a40b2405849e597ba5fb5810361096a57604051630cc7509160e01b815260040160405180910390fd5b6001600160a01b0385165f90815260016020526040812054146109a0576040516342ee68b560e01b815260040160405180910390fd5b5f818152600260205260409020546001600160a01b0316156109d557604051634c334c9760e11b815260040160405180910390fd5b604080515f917f30644e72e131a029b85045b68181585d2833e84879b9709143e1f593f000000191610a2d918835916020808b0135928b01359160608c01359160808d019160c08e01918d35918e8201359101611b7e565b604051602081830303815290604052805190602001205f1c610a4f9190611bc0565b9050610ae8610a88610a7383610a6d368a90038a0160408b01611b4d565b906110e0565b610a8236899003890189611b4d565b90611150565b610a906111c4565b610ad1610ac285610a6d6040805180820182525f80825260209182015281518083019092526001825260029082015290565b610a82368a90038a018a611b4d565b610ae3368a90038a0160808b01611c21565b611284565b610b055760405163a72d026360e01b815260040160405180910390fd5b6001600160a01b0386165f9081526003602090815260408083208882013581556060890135600190910155600690915290206080860190610b468282611c8b565b50506001600160a01b0386165f81815260016020908152604080832086905585835260029091529081902080546001600160a01b0319168317905580517fe3fb6613af2e8930cf85d47fcf6db10192224a64c6cbe8023e0eee1ba382804191610bb7919089019060808a0190611ce6565b60405180910390a250949350505050565b610bd06114bb565b5f610bda8361087d565b509050610be68361156c565b610c2681610bf26111c4565b6040805180820182525f808252602091820152815180830190925260018252600290820152610ae336879003870187611c21565b610c435760405163a72d026360e01b815260040160405180910390fd5b6001600160a01b0383165f9081526006602052604090208290610c668282611c8b565b905050826001600160a01b03167f5c4f9f28153dbf3f00e69607a59e82ad806fffb78d09f179f62432f7e9d2511a83604051610ca29190611d05565b60405180910390a2505050565b60605f8367ffffffffffffffff811115610ccb57610ccb6117fa565b604051908082528060200260200182016040528015610cf4578160200160208202803683370190505b5090505f5b84811015610e3e575f868683818110610d1457610d14611b39565b919091013560f81c5f818152600460205260409020549092509050801580610d74575060ff82165f9081526004602052604081208054909190610d5957610d59611b39565b5f91825260209091200154600160c01b900463ffffffff1686105b15610d9257604051633f4cb70f60e01b815260040160405180910390fd5b805b8015610e335760ff83165f9081526004602052604090208790610db8600184611d13565b81548110610dc857610dc8611b39565b5f91825260209091200154600160c01b900463ffffffff1611610e2157610df0600182611d13565b858581518110610e0257610e02611b39565b602002602001019063ffffffff16908163ffffffff1681525050610e33565b80610e2b81611d26565b915050610d94565b505050600101610cf9565b50949350505050565b610e4f610eae565b5f610e598361087d565b509050610e6e82610e69836115cd565b610ef9565b7ff843ecd53a563675e62107be1494fdde4a3d49aeedaf8d88c616d85346e3500e83610611856001600160a01b03165f9081526001602052604090205490565b336001600160a01b037f00000000000000000000000000000000000000000000000000000000000000001614610ef757604051634394dbdf60e11b815260040160405180910390fd5b565b604080518082019091525f80825260208201525f5b83518110156110da575f848281518110610f2a57610f2a611b39565b0160209081015160f81c5f8181526004909252604082205490925090819003610f6657604051637310cff560e11b815260040160405180910390fd5b60ff82165f908152600560209081526040918290208251808401909352805483526001015490820152610f999086611150565b60ff83165f818152600560209081526040808320855180825586840180516001938401559085525183528184209484526004909252822093975091929091610fe19085611d13565b81548110610ff157610ff1611b39565b5f918252602090912001805490915063ffffffff438116600160c01b909204160361102f5780546001600160c01b031916604083901c1781556110ca565b805463ffffffff438116600160e01b8181026001600160e01b0394851617855560ff88165f908152600460209081526040808320815160608101835267ffffffffffffffff198b16815280840196875280830185815282546001810184559286529390942093519301805495519251871690940291909516600160c01b026001600160e01b0319949094169190941c17919091179092161790555b505060019092019150610f0e9050565b50505050565b604080518082019091525f80825260208201526110fb6116ae565b835181526020808501519082015260408082018490525f908360608460076107d05a03fa9050808061112957fe5b508061114857604051632319df1960e11b815260040160405180910390fd5b505092915050565b604080518082019091525f808252602082015261116b6116cc565b835181526020808501518183015283516040808401919091529084015160608301525f908360808460066107d05a03fa905080806111a557fe5b50806111485760405163d4b68fd760e01b815260040160405180910390fd5b6111cc611689565b50604080516080810182527f198e9393920d483a7260bfb731fb5d25f1aa493335a9e71297e485b7aef312c28183019081527f1800deef121f1e76426a00665e5c4479674322d4f75edadd46debd5cd992f6ed6060830152815281518083019092527f275dc4a288d1afb3cbb1ac09187524c7db36395df7be3b99e673b13a075a65ec82527f1d9befcd05a5323e6da4d435f3b617cdb3af83285c2df711ef39c01571827f9d60208381019190915281019190915290565b6040805180820182528581526020808201859052825180840190935285835282018390525f916112b26116ea565b5f5b6002811015611469575f6112c9826006611c74565b90508482600281106112dd576112dd611b39565b602002015151836112ee835f611d3b565b600c81106112fe576112fe611b39565b602002015284826002811061131557611315611b39565b6020020151602001518382600161132c9190611d3b565b600c811061133c5761133c611b39565b602002015283826002811061135357611353611b39565b6020020151515183611366836002611d3b565b600c811061137657611376611b39565b602002015283826002811061138d5761138d611b39565b60200201515160016020020151836113a6836003611d3b565b600c81106113b6576113b6611b39565b60200201528382600281106113cd576113cd611b39565b6020020151602001515f600281106113e7576113e7611b39565b6020020151836113f8836004611d3b565b600c811061140857611408611b39565b602002015283826002811061141f5761141f611b39565b60200201516020015160016002811061143a5761143a611b39565b60200201518361144b836005611d3b565b600c811061145b5761145b611b39565b6020020152506001016112b4565b50611472611709565b5f6020826101808560086107d05a03fa9050808061148c57fe5b50806114ab576040516324ccc79360e21b815260040160405180910390fd5b5051151598975050505050505050565b7f00000000000000000000000000000000000000000000000000000000000000006001600160a01b0316638da5cb5b6040518163ffffffff1660e01b8152600401602060405180830381865afa158015611517573d5f5f3e3d5ffd5b505050506040513d601f19601f8201168201806040525081019061153b9190611d4e565b6001600160a01b0316336001600160a01b031614610ef757604051637070f3b160e11b815260040160405180910390fd5b5f611576826106bf565b80515190915015801561158c5750805160200151155b801561159b5750602081015151155b80156115ac57506020818101510151155b6115c957604051630849e5cf60e41b815260040160405180910390fd5b5050565b604080518082019091525f808252602082015281511580156115f157506020820151155b1561160e575050604080518082019091525f808252602082015290565b6040518060400160405280835f015181526020017f30644e72e131a029b85045b68181585d97816a916871ca8d3c208c16d87cfd4784602001516116529190611bc0565b61167c907f30644e72e131a029b85045b68181585d97816a916871ca8d3c208c16d87cfd47611d13565b905292915050565b919050565b604051806040016040528061169c611727565b81526020016116a9611727565b905290565b60405180606001604052806003906020820280368337509192915050565b60405180608001604052806004906020820280368337509192915050565b604051806101800160405280600c906020820280368337509192915050565b60405180602001604052806001906020820280368337509192915050565b60405180604001604052806002906020820280368337509192915050565b6001600160a01b0381168114611759575f5ffd5b50565b5f6020828403121561176c575f5ffd5b81356104eb81611745565b5f5f5f83850361016081121561178b575f5ffd5b843561179681611745565b9350610100601f19820112156117aa575f5ffd5b602085019250604061011f19820112156117c2575f5ffd5b50610120840190509250925092565b803560ff81168114611684575f5ffd5b5f602082840312156117f1575f5ffd5b6104eb826117d1565b634e487b7160e01b5f52604160045260245ffd5b6040805190810167ffffffffffffffff81118282101715611831576118316117fa565b60405290565b604051601f8201601f1916810167ffffffffffffffff81118282101715611860576118606117fa565b604052919050565b5f5f60408385031215611879575f5ffd5b823561188481611745565b9150602083013567ffffffffffffffff81111561189f575f5ffd5b8301601f810185136118af575f5ffd5b803567ffffffffffffffff8111156118c9576118c96117fa565b6118dc601f8201601f1916602001611837565b8181528660208385010111156118f0575f5ffd5b816020840160208301375f602083830101528093505050509250929050565b5f6020828403121561191f575f5ffd5b5035919050565b8151815260208083015190820152604081016106b9565b5f5f6040838503121561194e575f5ffd5b611957836117d1565b946020939093013593505050565b805f5b60028110156110da578151845260209384019390910190600101611968565b5f608082019050611999828451611965565b60208301516119ab6040840182611965565b5092915050565b5f5f5f606084860312156119c4575f5ffd5b6119cd846117d1565b9250602084013563ffffffff811681146119e5575f5ffd5b929592945050506040919091013590565b5f5f82840360a0811215611a08575f5ffd5b8335611a1381611745565b92506080601f1982011215611a26575f5ffd5b506020830190509250929050565b5f5f5f60408486031215611a46575f5ffd5b833567ffffffffffffffff811115611a5c575f5ffd5b8401601f81018613611a6c575f5ffd5b803567ffffffffffffffff811115611a82575f5ffd5b866020828401011115611a93575f5ffd5b6020918201979096509401359392505050565b602080825282518282018190525f918401906040840190835b81811015611ae357835163ffffffff16835260209384019390920191600101611abf565b509095945050505050565b60018060a01b0384168152826020820152606060408201525f82518060608401528060208501608085015e5f608082850101526080601f19601f830116840101915050949350505050565b634e487b7160e01b5f52603260045260245ffd5b5f6040828403128015611b5e575f5ffd5b50611b6761180e565b823581526020928301359281019290925250919050565b888152876020820152866040820152856060820152604085608083013760408460c0830137610100810192909252610120820152610140019695505050505050565b5f82611bda57634e487b7160e01b5f52601260045260245ffd5b500690565b5f82601f830112611bee575f5ffd5b611bf661180e565b806040840185811115611c07575f5ffd5b845b81811015611ae3578035845260209384019301611c09565b5f6080828403128015611c32575f5ffd5b50611c3b61180e565b611c458484611bdf565b8152611c548460408501611bdf565b60208201529392505050565b634e487b7160e01b5f52601160045260245ffd5b80820281158282048414176106b9576106b9611c60565b815f5b6002811015611cab57813583820155602090910190600101611c8e565b5050604082015f5b60028110156110da57813583820160020155602090910190600101611cb3565b6040818337604080820160408401375050565b823581526020808401359082015260c081016104eb6040830184611cd3565b608081016106b98284611cd3565b818103818111156106b9576106b9611c60565b5f81611d3457611d34611c60565b505f190190565b808201808211156106b9576106b9611c60565b5f60208284031215611d5e575f5ffd5b81516104eb8161174556fea26469706673582212205696f22cc405809ec131ae672eb6fae85e311fc5b939958e60ad9c14581f822864736f6c634300081b0033","linkReferences":{}},"methodIdentifiers":{"apkHistory(uint8,uint256)":"7916cea6","currentApk(uint8)":"a3db80e2","deregisterOperator(address,bytes)":"f4e24fe5","getApk(uint8)":"5f61a884","getApkHashAtBlockNumberAndIndex(uint8,uint32,uint256)":"68bccaac","getApkHistoryLength(uint8)":"377ed99d","getApkIndicesAtBlockNumber(bytes,uint256)":"d5254a8c","getApkUpdateAtIndex(uint8,uint256)":"605747d5","getOperatorFromPubkeyHash(bytes32)":"47b314e8","getOperatorId(address)":"13542a4e","getOperatorPubkeyG2(address)":"67169911","getOrRegisterOperatorId(address,((uint256,uint256),(uint256,uint256),(uint256[2],uint256[2])),(uint256,uint256))":"03c5a6b6","getRegisteredPubkey(address)":"7ff81a87","initializeQuorum(uint8)":"26d941f2","operatorToPubkey(address)":"00a1f4cb","operatorToPubkeyHash(address)":"de29fac0","pubkeyHashToOperator(bytes32)":"e8bb9ae6","registerBLSPublicKey(address,((uint256,uint256),(uint256,uint256),(uint256[2],uint256[2])),(uint256,uint256))":"bf79ce58","registerOperator(address,bytes)":"3fb27952","registryCoordinator()":"6d14a987","verifyAndRegisterG2PubkeyForOperator(address,(uint256[2],uint256[2]))":"d1a64650"},"id":126}