{"abi":[{"type":"function","name":"getBatchOperatorFromId","inputs":[{"name":"registryCoordinator","type":"address","internalType":"contract ISlashingRegistryCoordinator"},{"name":"operatorIds","type":"bytes32[]","internalType":"bytes32[]"}],"outputs":[{"name":"operators","type":"address[]","internalType":"address[]"}],"stateMutability":"view"},{"type":"function","name":"getBatchOperatorId","inputs":[{"name":"registryCoordinator","type":"address","internalType":"contract ISlashingRegistryCoordinator"},{"name":"operators","type":"address[]","internalType":"address[]"}],"outputs":[{"name":"operatorIds","type":"bytes32[]","internalType":"bytes32[]"}],"stateMutability":"view"},{"type":"function","name":"getCheckSignaturesIndices","inputs":[{"name":"registryCoordinator","type":"address","internalType":"contract ISlashingRegistryCoordinator"},{"name":"referenceBlockNumber","type":"uint32","internalType":"uint32"},{"name":"quorumNumbers","type":"bytes","internalType":"bytes"},{"name":"nonSignerOperatorIds","type":"bytes32[]","internalType":"bytes32[]"}],"outputs":[{"name":"","type":"tuple","internalType":"struct OperatorStateRetriever.CheckSignaturesIndices","components":[{"name":"nonSignerQuorumBitmapIndices","type":"uint32[]","internalType":"uint32[]"},{"name":"quorumApkIndices","type":"uint32[]","internalType":"uint32[]"},{"name":"totalStakeIndices","type":"uint32[]","internalType":"uint32[]"},{"name":"nonSignerStakeIndices","type":"uint32[][]","internalType":"uint32[][]"}]}],"stateMutability":"view"},{"type":"function","name":"getNonSignerStakesAndSignature","inputs":[{"name":"registryCoordinator","type":"address","internalType":"contract ISlashingRegistryCoordinator"},{"name":"quorumNumbers","type":"bytes","internalType":"bytes"},{"name":"sigma","type":"tuple","internalType":"struct BN254.G1Point","components":[{"name":"X","type":"uint256","internalType":"uint256"},{"name":"Y","type":"uint256","internalType":"uint256"}]},{"name":"operators","type":"address[]","internalType":"address[]"},{"name":"blockNumber","type":"uint32","internalType":"uint32"}],"outputs":[{"name":"","type":"tuple","internalType":"struct IBLSSignatureCheckerTypes.NonSignerStakesAndSignature","components":[{"name":"nonSignerQuorumBitmapIndices","type":"uint32[]","internalType":"uint32[]"},{"name":"nonSignerPubkeys","type":"tuple[]","internalType":"struct BN254.G1Point[]","components":[{"name":"X","type":"uint256","internalType":"uint256"},{"name":"Y","type":"uint256","internalType":"uint256"}]},{"name":"quorumApks","type":"tuple[]","internalType":"struct BN254.G1Point[]","components":[{"name":"X","type":"uint256","internalType":"uint256"},{"name":"Y","type":"uint256","internalType":"uint256"}]},{"name":"apkG2","type":"tuple","internalType":"struct BN254.G2Point","components":[{"name":"X","type":"uint256[2]","internalType":"uint256[2]"},{"name":"Y","type":"uint256[2]","internalType":"uint256[2]"}]},{"name":"sigma","type":"tuple","internalType":"struct BN254.G1Point","components":[{"name":"X","type":"uint256","internalType":"uint256"},{"name":"Y","type":"uint256","internalType":"uint256"}]},{"name":"quorumApkIndices","type":"uint32[]","internalType":"uint32[]"},{"name":"totalStakeIndices","type":"uint32[]","internalType":"uint32[]"},{"name":"nonSignerStakeIndices","type":"uint32[][]","internalType":"uint32[][]"}]}],"stateMutability":"view"},{"type":"function","name":"getOperatorState","inputs":[{"name":"registryCoordinator","type":"address","internalType":"contract ISlashingRegistryCoordinator"},{"name":"quorumNumbers","type":"bytes","internalType":"bytes"},{"name":"blockNumber","type":"uint32","internalType":"uint32"}],"outputs":[{"name":"","type":"tuple[][]","internalType":"struct OperatorStateRetriever.Operator[][]","components":[{"name":"operator","type":"address","internalType":"address"},{"name":"operatorId","type":"bytes32","internalType":"bytes32"},{"name":"stake","type":"uint96","internalType":"uint96"}]}],"stateMutability":"view"},{"type":"function","name":"getOperatorState","inputs":[{"name":"registryCoordinator","type":"address","internalType":"contract ISlashingRegistryCoordinator"},{"name":"operatorId","type":"bytes32","internalType":"bytes32"},{"name":"blockNumber","type":"uint32","internalType":"uint32"}],"outputs":[{"name":"","type":"uint256","internalType":"uint256"},{"name":"","type":"tuple[][]","internalType":"struct OperatorStateRetriever.Operator[][]","components":[{"name":"operator","type":"address","internalType":"address"},{"name":"operatorId","type":"bytes32","internalType":"bytes32"},{"name":"stake","type":"uint96","internalType":"uint96"}]}],"stateMutability":"view"},{"type":"function","name":"getQuorumBitmapsAtBlockNumber","inputs":[{"name":"registryCoordinator","type":"address","internalType":"contract ISlashingRegistryCoordinator"},{"name":"operatorIds","type":"bytes32[]","internalType":"bytes32[]"},{"name":"blockNumber","type":"uint32","internalType":"uint32"}],"outputs":[{"name":"","type":"uint256[]","internalType":"uint256[]"}],"stateMutability":"view"},{"type":"error","name":"BytesArrayLengthTooLong","inputs":[]},{"type":"error","name":"BytesArrayNotOrdered","inputs":[]},{"type":"error","name":"ECAddFailed","inputs":[]},{"type":"error","name":"InvalidSigma","inputs":[]},{"type":"error","name":"OperatorNotRegistered","inputs":[]}],"bytecode":{"object":"0x6080604052348015600e575f5ffd5b506148158061001c5f395ff3fe608060405234801561000f575f5ffd5b506004361061007b575f3560e01c80634f739f74116100595780634f739f741461010f5780635c1556621461013f578063932a4caa1461016f578063cefdc1d41461019f5761007b565b806331b36bd91461007f5780633563b0d1146100af5780634d2b57fe146100df575b5f5ffd5b61009960048036038101906100949190612c8c565b6101d0565b6040516100a69190612da6565b60405180910390f35b6100c960048036038101906100c49190612eaf565b6102ef565b6040516100d691906130f3565b60405180910390f35b6100f960048036038101906100f491906131fd565b6107a9565b60405161010691906132ff565b60405180910390f35b61012960048036038101906101249190613378565b6108f6565b60405161013691906135ff565b60405180910390f35b6101596004803603810190610154919061361f565b611013565b604051610166919061374b565b60405180910390f35b610189600480360381019061018491906137e2565b6111f3565b6040516101969190613aed565b60405180910390f35b6101b960048036038101906101b49190613b0d565b611fe5565b6040516101c7929190613b6c565b60405180910390f35b6060815167ffffffffffffffff8111156101ed576101ec612b26565b5b60405190808252806020026020018201604052801561021b5781602001602082028036833780820191505090505b5090505f5f90505b82518110156102e8578373ffffffffffffffffffffffffffffffffffffffff166313542a4e84838151811061025b5761025a613b9a565b5b60200260200101516040518263ffffffff1660e01b815260040161027f9190613bd6565b602060405180830381865afa15801561029a573d5f5f3e3d5ffd5b505050506040513d601f19601f820116820180604052508101906102be9190613c03565b8282815181106102d1576102d0613b9a565b5b602002602001018181525050806001019050610223565b5092915050565b60605f8473ffffffffffffffffffffffffffffffffffffffff1663683048356040518163ffffffff1660e01b8152600401602060405180830381865afa15801561033b573d5f5f3e3d5ffd5b505050506040513d601f19601f8201168201806040525081019061035f9190613c69565b90505f8573ffffffffffffffffffffffffffffffffffffffff16639e9923c26040518163ffffffff1660e01b8152600401602060405180830381865afa1580156103ab573d5f5f3e3d5ffd5b505050506040513d601f19601f820116820180604052508101906103cf9190613ccf565b90505f8673ffffffffffffffffffffffffffffffffffffffff16635df459466040518163ffffffff1660e01b8152600401602060405180830381865afa15801561041b573d5f5f3e3d5ffd5b505050506040513d601f19601f8201168201806040525081019061043f9190613d35565b90505f865167ffffffffffffffff81111561045d5761045c612b26565b5b60405190808252806020026020018201604052801561049057816020015b606081526020019060019003908161047b5790505b5090505f5f90505b875181101561079a575f8882815181106104b5576104b4613b9a565b5b602001015160f81c60f81b60f81c90505f8573ffffffffffffffffffffffffffffffffffffffff166389026245838b6040518363ffffffff1660e01b8152600401610501929190613d8a565b5f60405180830381865afa15801561051b573d5f5f3e3d5ffd5b505050506040513d5f823e3d601f19601f820116820180604052508101906105439190613e46565b9050805167ffffffffffffffff8111156105605761055f612b26565b5b60405190808252806020026020018201604052801561059957816020015b6105866128fa565b81526020019060019003908161057e5790505b508484815181106105ad576105ac613b9a565b5b60200260200101819052505f5f90505b815181101561078a5760405180606001604052808773ffffffffffffffffffffffffffffffffffffffff166347b314e8858581518110610600576105ff613b9a565b5b60200260200101516040518263ffffffff1660e01b81526004016106249190613e9c565b602060405180830381865afa15801561063f573d5f5f3e3d5ffd5b505050506040513d601f19601f820116820180604052508101906106639190613ec9565b73ffffffffffffffffffffffffffffffffffffffff16815260200183838151811061069157610690613b9a565b5b602002602001015181526020018973ffffffffffffffffffffffffffffffffffffffff1663fa28c6278585815181106106cd576106cc613b9a565b5b6020026020010151878f6040518463ffffffff1660e01b81526004016106f593929190613ef4565b602060405180830381865afa158015610710573d5f5f3e3d5ffd5b505050506040513d601f19601f820116820180604052508101906107349190613f53565b6bffffffffffffffffffffffff1681525085858151811061075857610757613b9a565b5b6020026020010151828151811061077257610771613b9a565b5b602002602001018190525080806001019150506105bd565b5050508080600101915050610498565b50809450505050509392505050565b6060815167ffffffffffffffff8111156107c6576107c5612b26565b5b6040519080825280602002602001820160405280156107f45781602001602082028036833780820191505090505b5090505f5f90505b82518110156108ef578373ffffffffffffffffffffffffffffffffffffffff1663296bb06484838151811061083457610833613b9a565b5b60200260200101516040518263ffffffff1660e01b81526004016108589190613e9c565b602060405180830381865afa158015610873573d5f5f3e3d5ffd5b505050506040513d601f19601f820116820180604052508101906108979190613ec9565b8282815181106108aa576108a9613b9a565b5b602002602001019073ffffffffffffffffffffffffffffffffffffffff16908173ffffffffffffffffffffffffffffffffffffffff16815250508060010190506107fc565b5092915050565b6108fe61293c565b5f8673ffffffffffffffffffffffffffffffffffffffff1663683048356040518163ffffffff1660e01b8152600401602060405180830381865afa158015610948573d5f5f3e3d5ffd5b505050506040513d601f19601f8201168201806040525081019061096c9190613c69565b905061097661293c565b8773ffffffffffffffffffffffffffffffffffffffff1663c391425e88866040518363ffffffff1660e01b81526004016109b1929190613f7e565b5f60405180830381865afa1580156109cb573d5f5f3e3d5ffd5b505050506040513d5f823e3d601f19601f820116820180604052508101906109f39190614080565b815f01819052508173ffffffffffffffffffffffffffffffffffffffff166381c075028888886040518463ffffffff1660e01b8152600401610a3793929190614103565b5f60405180830381865afa158015610a51573d5f5f3e3d5ffd5b505050506040513d5f823e3d601f19601f82011682018060405250810190610a799190614080565b81604001819052508585905067ffffffffffffffff811115610a9e57610a9d612b26565b5b604051908082528060200260200182016040528015610ad157816020015b6060815260200190600190039081610abc5790505b5081606001819052505f5f90505b868690508160ff161015610f0c575f5f9050855167ffffffffffffffff811115610b0c57610b0b612b26565b5b604051908082528060200260200182016040528015610b3a5781602001602082028036833780820191505090505b5083606001518360ff1681518110610b5557610b54613b9a565b5b60200260200101819052505f5f90505b8651811015610e00575f8b73ffffffffffffffffffffffffffffffffffffffff166304ec6351898481518110610b9e57610b9d613b9a565b5b60200260200101518d885f01518681518110610bbd57610bbc613b9a565b5b60200260200101516040518463ffffffff1660e01b8152600401610be39392919061416c565b602060405180830381865afa158015610bfe573d5f5f3e3d5ffd5b505050506040513d601f19601f82011682018060405250810190610c2291906141ee565b90505f8177ffffffffffffffffffffffffffffffffffffffffffffffff1603610c77576040517f25ec6c1f00000000000000000000000000000000000000000000000000000000815260040160405180910390fd5b6001808b8b8760ff16818110610c9057610c8f613b9a565b5b9050013560f81c60f81b60f81c60ff168377ffffffffffffffffffffffffffffffffffffffffffffffff16901c1677ffffffffffffffffffffffffffffffffffffffffffffffff1603610df2578573ffffffffffffffffffffffffffffffffffffffff1663dd9846b9898481518110610d0c57610d0b613b9a565b5b60200260200101518c8c8860ff16818110610d2a57610d29613b9a565b5b9050013560f81c60f81b60f81c8e6040518463ffffffff1660e01b8152600401610d5693929190613ef4565b602060405180830381865afa158015610d71573d5f5f3e3d5ffd5b505050506040513d601f19601f82011682018060405250810190610d959190614219565b85606001518560ff1681518110610daf57610dae613b9a565b5b60200260200101518481518110610dc957610dc8613b9a565b5b602002602001019063ffffffff16908163ffffffff16815250508280610dee90614271565b9350505b508080600101915050610b65565b505f8167ffffffffffffffff811115610e1c57610e1b612b26565b5b604051908082528060200260200182016040528015610e4a5781602001602082028036833780820191505090505b5090505f5f90505b82811015610ed05784606001518460ff1681518110610e7457610e73613b9a565b5b60200260200101518181518110610e8e57610e8d613b9a565b5b6020026020010151828281518110610ea957610ea8613b9a565b5b602002602001019063ffffffff16908163ffffffff16815250508080600101915050610e52565b508084606001518460ff1681518110610eec57610eeb613b9a565b5b602002602001018190525050508080610f04906142b8565b915050610adf565b505f8873ffffffffffffffffffffffffffffffffffffffff16635df459466040518163ffffffff1660e01b8152600401602060405180830381865afa158015610f57573d5f5f3e3d5ffd5b505050506040513d601f19601f82011682018060405250810190610f7b9190613d35565b90508073ffffffffffffffffffffffffffffffffffffffff1663d5254a8c88888b6040518463ffffffff1660e01b8152600401610fba939291906142e0565b5f60405180830381865afa158015610fd4573d5f5f3e3d5ffd5b505050506040513d5f823e3d601f19601f82011682018060405250810190610ffc9190614080565b826020018190525081935050505095945050505050565b60605f8473ffffffffffffffffffffffffffffffffffffffff1663c391425e84866040518363ffffffff1660e01b8152600401611051929190613f7e565b5f60405180830381865afa15801561106b573d5f5f3e3d5ffd5b505050506040513d5f823e3d601f19601f820116820180604052508101906110939190614080565b90505f845167ffffffffffffffff8111156110b1576110b0612b26565b5b6040519080825280602002602001820160405280156110df5781602001602082028036833780820191505090505b5090505f5f90505b85518110156111e6578673ffffffffffffffffffffffffffffffffffffffff166304ec635187838151811061111f5761111e613b9a565b5b60200260200101518786858151811061113b5761113a613b9a565b5b60200260200101516040518463ffffffff1660e01b81526004016111619392919061416c565b602060405180830381865afa15801561117c573d5f5f3e3d5ffd5b505050506040513d601f19601f820116820180604052508101906111a091906141ee565b77ffffffffffffffffffffffffffffffffffffffffffffffff168282815181106111cd576111cc613b9a565b5b60200260200101818152505080806001019150506110e7565b5080925050509392505050565b6111fb612964565b6112036129b5565b8787905067ffffffffffffffff8111156112205761121f612b26565b5b60405190808252806020026020018201604052801561125957816020015b611246612a14565b81526020019060019003908161123e5790505b50815f01819052508873ffffffffffffffffffffffffffffffffffffffff16639e9923c26040518163ffffffff1660e01b8152600401602060405180830381865afa1580156112aa573d5f5f3e3d5ffd5b505050506040513d601f19601f820116820180604052508101906112ce9190613ccf565b816040019073ffffffffffffffffffffffffffffffffffffffff16908173ffffffffffffffffffffffffffffffffffffffff16815250508873ffffffffffffffffffffffffffffffffffffffff16635df459466040518163ffffffff1660e01b8152600401602060405180830381865afa15801561134e573d5f5f3e3d5ffd5b505050506040513d601f19601f820116820180604052508101906113729190613d35565b816060019073ffffffffffffffffffffffffffffffffffffffff16908173ffffffffffffffffffffffffffffffffffffffff16815250506113c2868036038101906113bd919061438b565b6121b6565b6113f8576040517f55ad472000000000000000000000000000000000000000000000000000000000815260040160405180910390fd5b8484905067ffffffffffffffff81111561141557611414612b26565b5b6040519080825280602002602001820160405280156114435781602001602082028036833780820191505090505b5081608001819052505f5f90505b858590508110156117ce578973ffffffffffffffffffffffffffffffffffffffff166313542a4e87878481811061148b5761148a613b9a565b5b90506020020160208101906114a091906143b6565b6040518263ffffffff1660e01b81526004016114bc9190613bd6565b602060405180830381865afa1580156114d7573d5f5f3e3d5ffd5b505050506040513d601f19601f820116820180604052508101906114fb9190613c03565b8260800151828151811061151257611511613b9a565b5b6020026020010181815250505f826060015173ffffffffffffffffffffffffffffffffffffffff16636716991188888581811061155257611551613b9a565b5b905060200201602081019061156791906143b6565b6040518263ffffffff1660e01b81526004016115839190613bd6565b608060405180830381865afa15801561159e573d5f5f3e3d5ffd5b505050506040513d601f19601f820116820180604052508101906115c291906144f0565b905073__$b7e39e239711b3b9a4a0b14f0548b1d370$__6361a931ec84602001515f01516001600281106115f9576115f8613b9a565b5b602002015185602001515f01515f6002811061161857611617613b9a565b5b602002015186602001516020015160016002811061163957611638613b9a565b5b60200201518760200151602001515f6002811061165957611658613b9a565b5b6020020151865f015160016002811061167557611674613b9a565b5b6020020151875f01515f600281106116905761168f613b9a565b5b602002015188602001516001600281106116ad576116ac613b9a565b5b602002015189602001515f600281106116c9576116c8613b9a565b5b60200201516040518963ffffffff1660e01b81526004016116f198979695949392919061452a565b608060405180830381865af415801561170c573d5f5f3e3d5ffd5b505050506040513d601f19601f8201168201806040525081019061173091906145a6565b86602001515f015160016002811061174b5761174a613b9a565b5b6020020187602001515f01515f6002811061176957611768613b9a565b5b6020020188602001516020015160016002811061178957611788613b9a565b5b602002018960200151602001515f600281106117a8576117a7613b9a565b5b602002018481525084815250848152508481525050505050508080600101915050611451565b505f8973ffffffffffffffffffffffffffffffffffffffff1663c391425e8584608001516040518363ffffffff1660e01b815260040161180f929190613f7e565b5f60405180830381865afa158015611829573d5f5f3e3d5ffd5b505050506040513d5f823e3d601f19601f820116820180604052508101906118519190614080565b90505f6118a08a8a8080601f0160208091040260200160405190810160405280939291908181526020018383808284375f81840152601f19601f820116905080830192505050505050506122ab565b90505f5f90505b878790508110156119db575f8c73ffffffffffffffffffffffffffffffffffffffff166304ec6351866080015184815181106118e6576118e5613b9a565b5b60200260200101518987868151811061190257611901613b9a565b5b60200260200101516040518463ffffffff1660e01b81526004016119289392919061416c565b602060405180830381865afa158015611943573d5f5f3e3d5ffd5b505050506040513d601f19601f8201168201806040525081019061196791906141ee565b9050611996838277ffffffffffffffffffffffffffffffffffffffffffffffff166123b390919063ffffffff16565b156119cd576040517f25ec6c1f00000000000000000000000000000000000000000000000000000000815260040160405180910390fd5b5080806001019150506118a7565b5050505f5f90505f601067ffffffffffffffff8111156119fe576119fd612b26565b5b604051908082528060200260200182016040528015611a2c5781602001602082028036833780820191505090505b5090505f5f90505b8a8a9050811015611d12575f846040015173ffffffffffffffffffffffffffffffffffffffff1663890262458d8d85818110611a7357611a72613b9a565b5b9050013560f81c60f81b60f81c896040518363ffffffff1660e01b8152600401611a9e929190613d8a565b5f60405180830381865afa158015611ab8573d5f5f3e3d5ffd5b505050506040513d5f823e3d601f19601f82011682018060405250810190611ae09190613e46565b9050611aec8d826123c1565b855f01518381518110611b0257611b01613b9a565b5b60200260200101819052505f5f90505b8151811015611d03575f600190505f5f90505b876080015151811015611b865787608001518181518110611b4957611b48613b9a565b5b6020026020010151848481518110611b6457611b63613b9a565b5b602002602001015103611b79575f9150611b86565b8080600101915050611b25565b505f5f90505b86811015611be457838381518110611ba757611ba6613b9a565b5b6020026020010151868281518110611bc257611bc1613b9a565b5b602002602001015103611bd7575f9150611be4565b8080600101915050611b8c565b508015611cf55784518603611cac575f60028651611c02919061460a565b90505f8167ffffffffffffffff811115611c1f57611c1e612b26565b5b604051908082528060200260200182016040528015611c4d5781602001602082028036833780820191505090505b5090505f5f90505b8751811015611ca557878181518110611c7157611c70613b9a565b5b6020026020010151828281518110611c8c57611c8b613b9a565b5b6020026020010181815250508080600101915050611c55565b5080965050505b828281518110611cbf57611cbe613b9a565b5b6020026020010151858781518110611cda57611cd9613b9a565b5b6020026020010181815250508580611cf190614271565b9650505b508080600101915050611b12565b50508080600101915050611a34565b505f8267ffffffffffffffff811115611d2e57611d2d612b26565b5b604051908082528060200260200182016040528015611d5c5781602001602082028036833780820191505090505b5090505f5f90505b83811015611db357828181518110611d7f57611d7e613b9a565b5b6020026020010151828281518110611d9a57611d99613b9a565b5b6020026020010181815250508080600101915050611d64565b50611dbd816125b3565b90505f8367ffffffffffffffff811115611dda57611dd9612b26565b5b604051908082528060200260200182016040528015611e1357816020015b611e00612a14565b815260200190600190039081611df85790505b5090505f5f90505b84811015611f61575f8e73ffffffffffffffffffffffffffffffffffffffff1663296bb064858481518110611e5357611e52613b9a565b5b60200260200101516040518263ffffffff1660e01b8152600401611e779190613e9c565b602060405180830381865afa158015611e92573d5f5f3e3d5ffd5b505050506040513d601f19601f82011682018060405250810190611eb69190613ec9565b9050866060015173ffffffffffffffffffffffffffffffffffffffff16637ff81a87826040518263ffffffff1660e01b8152600401611ef59190613bd6565b606060405180830381865afa158015611f10573d5f5f3e3d5ffd5b505050506040513d601f19601f82011682018060405250810190611f349190614698565b50838381518110611f4857611f47613b9a565b5b6020026020010181905250508080600101915050611e1b565b505f611f708e898f8f876108f6565b9050604051806101000160405280825f01518152602001838152602001875f01518152602001876020015181526020018c803603810190611fb1919061438b565b8152602001826020015181526020018260400151815260200182606001518152509650505050505050979650505050505050565b5f60605f600167ffffffffffffffff81111561200457612003612b26565b5b6040519080825280602002602001820160405280156120325781602001602082028036833780820191505090505b50905084815f8151811061204957612048613b9a565b5b6020026020010181815250505f8673ffffffffffffffffffffffffffffffffffffffff1663c391425e86846040518363ffffffff1660e01b8152600401612091929190613f7e565b5f60405180830381865afa1580156120ab573d5f5f3e3d5ffd5b505050506040513d5f823e3d601f19601f820116820180604052508101906120d39190614080565b5f815181106120e5576120e4613b9a565b5b602002602001015163ffffffff1690505f8773ffffffffffffffffffffffffffffffffffffffff166304ec63518888856040518463ffffffff1660e01b8152600401612133939291906146d6565b602060405180830381865afa15801561214e573d5f5f3e3d5ffd5b505050506040513d601f19601f8201168201806040525081019061217291906141ee565b77ffffffffffffffffffffffffffffffffffffffffffffffff1690505f612198826125d2565b9050816121a68a838a6102ef565b9550955050505050935093915050565b5f5f7f30644e72e131a029b85045b68181585d97816a916871ca8d3c208c16d87cfd47806121e7576121e661470b565b5b836020015184602001510990505f7f30644e72e131a029b85045b68181585d97816a916871ca8d3c208c16d87cfd47806122245761222361470b565b5b845f0151855f01510990505f7f30644e72e131a029b85045b68181585d97816a916871ca8d3c208c16d87cfd478061225f5761225e61470b565b5b82865f01510990505f7f30644e72e131a029b85045b68181585d97816a916871ca8d3c208c16d87cfd47806122975761229661470b565b5b600383089050808414945050505050919050565b5f610100825111156122e9576040517ffb4a9c8e00000000000000000000000000000000000000000000000000000000815260040160405180910390fd5b5f8251036122f9575f90506123ae565b5f5f835f8151811061230e5761230d613b9a565b5b602001015160f81c60f81b60f81c60ff166001901b91505f600190505b84518110156123a75784818151811061234757612346613b9a565b5b602001015160f81c60f81b60f81c60ff166001901b9150828211612397576040517f80c8834800000000000000000000000000000000000000000000000000000000815260040160405180910390fd5b818317925080600101905061232b565b5081925050505b919050565b5f5f82841614905092915050565b6123c9612a14565b5f60405180604001604052805f81526020015f81525090505f8473ffffffffffffffffffffffffffffffffffffffff16635df459466040518163ffffffff1660e01b8152600401602060405180830381865afa15801561242b573d5f5f3e3d5ffd5b505050506040513d601f19601f8201168201806040525081019061244f9190613d35565b90505f5f90505b84518110156125a7575f8673ffffffffffffffffffffffffffffffffffffffff1663296bb06487848151811061248f5761248e613b9a565b5b60200260200101516040518263ffffffff1660e01b81526004016124b39190613e9c565b602060405180830381865afa1580156124ce573d5f5f3e3d5ffd5b505050506040513d601f19601f820116820180604052508101906124f29190613ec9565b90506124fc612a14565b8373ffffffffffffffffffffffffffffffffffffffff1662a1f4cb836040518263ffffffff1660e01b81526004016125349190613bd6565b6040805180830381865afa15801561254e573d5f5f3e3d5ffd5b505050506040513d601f19601f820116820180604052508101906125729190614738565b825f01836020018281525082815250505061259681866126c990919063ffffffff16565b945050508080600101915050612456565b50819250505092915050565b60606125c96125c1836127b9565b6127c36127cf565b50819050919050565b60605f5f6125df846127f5565b61ffff1667ffffffffffffffff8111156125fc576125fb612b26565b5b6040519080825280601f01601f19166020018201604052801561262e5781602001600182028036833780820191505090505b5090505f5f90505f5f90505b82518210801561264b575061010081105b156126bd57806001901b93505f848716146126ac578060f81b83838151811061267757612676613b9a565b5b60200101907effffffffffffffffffffffffffffffffffffffffffffffffffffffffffffff191690815f1a9053508160010191505b806126b690614271565b905061263a565b50819350505050919050565b6126d1612a14565b6126d9612a2c565b835f0151815f600481106126f0576126ef613b9a565b5b60200201818152505083602001518160016004811061271257612711613b9a565b5b602002018181525050825f01518160026004811061273357612732613b9a565b5b60200201818152505082602001518160036004811061275557612754613b9a565b5b6020020181815250505f60408360808460066107d05a03fa9050805f810361277957fe5b50806127b1576040517fd4b68fd700000000000000000000000000000000000000000000000000000000815260040160405180910390fd5b505092915050565b6060819050919050565b5f818310905092915050565b60606127ec6127dd84612830565b6127e68561283c565b84612853565b82905092915050565b5f5f5f90505b5f831115612827576001836128109190614776565b83169250808061281f906147b6565b9150506127fb565b80915050919050565b5f602082019050919050565b5f602082510261284b83612830565b019050919050565b6040838303106128db575f612867846128e0565b90505f8490505f6020860190505b848110156128b457612893612889826128e0565b848663ffffffff16565b156128a9576020820191506128a882826128ea565b5b602081019050612875565b506128bf85826128ea565b6128ca858285612853565b6128d8602082018585612853565b50505b505050565b5f81519050919050565b8151815180845281835250505050565b60405180606001604052805f73ffffffffffffffffffffffffffffffffffffffff1681526020015f81526020015f6bffffffffffffffffffffffff1681525090565b6040518060800160405280606081526020016060815260200160608152602001606081525090565b60405180610100016040528060608152602001606081526020016060815260200161298d612a4e565b815260200161299a612a14565b81526020016060815260200160608152602001606081525090565b6040518060a00160405280606081526020016129cf612a4e565b81526020015f73ffffffffffffffffffffffffffffffffffffffff1681526020015f73ffffffffffffffffffffffffffffffffffffffff168152602001606081525090565b60405180604001604052805f81526020015f81525090565b6040518060800160405280600490602082028036833780820191505090505090565b6040518060400160405280612a61612a74565b8152602001612a6e612a74565b81525090565b6040518060400160405280600290602082028036833780820191505090505090565b5f604051905090565b5f5ffd5b5f5ffd5b5f73ffffffffffffffffffffffffffffffffffffffff82169050919050565b5f612ad082612aa7565b9050919050565b5f612ae182612ac6565b9050919050565b612af181612ad7565b8114612afb575f5ffd5b50565b5f81359050612b0c81612ae8565b92915050565b5f5ffd5b5f601f19601f8301169050919050565b7f4e487b71000000000000000000000000000000000000000000000000000000005f52604160045260245ffd5b612b5c82612b16565b810181811067ffffffffffffffff82111715612b7b57612b7a612b26565b5b80604052505050565b5f612b8d612a96565b9050612b998282612b53565b919050565b5f67ffffffffffffffff821115612bb857612bb7612b26565b5b602082029050602081019050919050565b5f5ffd5b612bd681612ac6565b8114612be0575f5ffd5b50565b5f81359050612bf181612bcd565b92915050565b5f612c09612c0484612b9e565b612b84565b90508083825260208201905060208402830185811115612c2c57612c2b612bc9565b5b835b81811015612c555780612c418882612be3565b845260208401935050602081019050612c2e565b5050509392505050565b5f82601f830112612c7357612c72612b12565b5b8135612c83848260208601612bf7565b91505092915050565b5f5f60408385031215612ca257612ca1612a9f565b5b5f612caf85828601612afe565b925050602083013567ffffffffffffffff811115612cd057612ccf612aa3565b5b612cdc85828601612c5f565b9150509250929050565b5f81519050919050565b5f82825260208201905092915050565b5f819050602082019050919050565b5f819050919050565b612d2181612d0f565b82525050565b5f612d328383612d18565b60208301905092915050565b5f602082019050919050565b5f612d5482612ce6565b612d5e8185612cf0565b9350612d6983612d00565b805f5b83811015612d99578151612d808882612d27565b9750612d8b83612d3e565b925050600181019050612d6c565b5085935050505092915050565b5f6020820190508181035f830152612dbe8184612d4a565b905092915050565b5f5ffd5b5f67ffffffffffffffff821115612de457612de3612b26565b5b612ded82612b16565b9050602081019050919050565b828183375f83830152505050565b5f612e1a612e1584612dca565b612b84565b905082815260208101848484011115612e3657612e35612dc6565b5b612e41848285612dfa565b509392505050565b5f82601f830112612e5d57612e5c612b12565b5b8135612e6d848260208601612e08565b91505092915050565b5f63ffffffff82169050919050565b612e8e81612e76565b8114612e98575f5ffd5b50565b5f81359050612ea981612e85565b92915050565b5f5f5f60608486031215612ec657612ec5612a9f565b5b5f612ed386828701612afe565b935050602084013567ffffffffffffffff811115612ef457612ef3612aa3565b5b612f0086828701612e49565b9250506040612f1186828701612e9b565b9150509250925092565b5f81519050919050565b5f82825260208201905092915050565b5f819050602082019050919050565b5f81519050919050565b5f82825260208201905092915050565b5f819050602082019050919050565b612f7681612ac6565b82525050565b5f6bffffffffffffffffffffffff82169050919050565b612f9c81612f7c565b82525050565b606082015f820151612fb65f850182612f6d565b506020820151612fc96020850182612d18565b506040820151612fdc6040850182612f93565b50505050565b5f612fed8383612fa2565b60608301905092915050565b5f602082019050919050565b5f61300f82612f44565b6130198185612f4e565b935061302483612f5e565b805f5b8381101561305457815161303b8882612fe2565b975061304683612ff9565b925050600181019050613027565b5085935050505092915050565b5f61306c8383613005565b905092915050565b5f602082019050919050565b5f61308a82612f1b565b6130948185612f25565b9350836020820285016130a685612f35565b805f5b858110156130e157848403895281516130c28582613061565b94506130cd83613074565b925060208a019950506001810190506130a9565b50829750879550505050505092915050565b5f6020820190508181035f83015261310b8184613080565b905092915050565b5f67ffffffffffffffff82111561312d5761312c612b26565b5b602082029050602081019050919050565b61314781612d0f565b8114613151575f5ffd5b50565b5f813590506131628161313e565b92915050565b5f61317a61317584613113565b612b84565b9050808382526020820190506020840283018581111561319d5761319c612bc9565b5b835b818110156131c657806131b28882613154565b84526020840193505060208101905061319f565b5050509392505050565b5f82601f8301126131e4576131e3612b12565b5b81356131f4848260208601613168565b91505092915050565b5f5f6040838503121561321357613212612a9f565b5b5f61322085828601612afe565b925050602083013567ffffffffffffffff81111561324157613240612aa3565b5b61324d858286016131d0565b9150509250929050565b5f81519050919050565b5f82825260208201905092915050565b5f819050602082019050919050565b5f61328b8383612f6d565b60208301905092915050565b5f602082019050919050565b5f6132ad82613257565b6132b78185613261565b93506132c283613271565b805f5b838110156132f25781516132d98882613280565b97506132e483613297565b9250506001810190506132c5565b5085935050505092915050565b5f6020820190508181035f83015261331781846132a3565b905092915050565b5f5ffd5b5f5f83601f84011261333857613337612b12565b5b8235905067ffffffffffffffff8111156133555761335461331f565b5b60208301915083600182028301111561337157613370612bc9565b5b9250929050565b5f5f5f5f5f6080868803121561339157613390612a9f565b5b5f61339e88828901612afe565b95505060206133af88828901612e9b565b945050604086013567ffffffffffffffff8111156133d0576133cf612aa3565b5b6133dc88828901613323565b9350935050606086013567ffffffffffffffff8111156133ff576133fe612aa3565b5b61340b888289016131d0565b9150509295509295909350565b5f81519050919050565b5f82825260208201905092915050565b5f819050602082019050919050565b61344a81612e76565b82525050565b5f61345b8383613441565b60208301905092915050565b5f602082019050919050565b5f61347d82613418565b6134878185613422565b935061349283613432565b805f5b838110156134c25781516134a98882613450565b97506134b483613467565b925050600181019050613495565b5085935050505092915050565b5f81519050919050565b5f82825260208201905092915050565b5f819050602082019050919050565b5f6135038383613473565b905092915050565b5f602082019050919050565b5f613521826134cf565b61352b81856134d9565b93508360208202850161353d856134e9565b805f5b85811015613578578484038952815161355985826134f8565b94506135648361350b565b925060208a01995050600181019050613540565b50829750879550505050505092915050565b5f608083015f8301518482035f8601526135a48282613473565b915050602083015184820360208601526135be8282613473565b915050604083015184820360408601526135d88282613473565b915050606083015184820360608601526135f28282613517565b9150508091505092915050565b5f6020820190508181035f830152613617818461358a565b905092915050565b5f5f5f6060848603121561363657613635612a9f565b5b5f61364386828701612afe565b935050602084013567ffffffffffffffff81111561366457613663612aa3565b5b613670868287016131d0565b925050604061368186828701612e9b565b9150509250925092565b5f81519050919050565b5f82825260208201905092915050565b5f819050602082019050919050565b5f819050919050565b6136c6816136b4565b82525050565b5f6136d783836136bd565b60208301905092915050565b5f602082019050919050565b5f6136f98261368b565b6137038185613695565b935061370e836136a5565b805f5b8381101561373e57815161372588826136cc565b9750613730836136e3565b925050600181019050613711565b5085935050505092915050565b5f6020820190508181035f83015261376381846136ef565b905092915050565b5f5ffd5b5f604082840312156137845761378361376b565b5b81905092915050565b5f5f83601f8401126137a2576137a1612b12565b5b8235905067ffffffffffffffff8111156137bf576137be61331f565b5b6020830191508360208202830111156137db576137da612bc9565b5b9250929050565b5f5f5f5f5f5f5f60c0888a0312156137fd576137fc612a9f565b5b5f61380a8a828b01612afe565b975050602088013567ffffffffffffffff81111561382b5761382a612aa3565b5b6138378a828b01613323565b9650965050604061384a8a828b0161376f565b945050608088013567ffffffffffffffff81111561386b5761386a612aa3565b5b6138778a828b0161378d565b935093505060a061388a8a828b01612e9b565b91505092959891949750929550565b5f81519050919050565b5f82825260208201905092915050565b5f819050602082019050919050565b604082015f8201516138d65f8501826136bd565b5060208201516138e960208501826136bd565b50505050565b5f6138fa83836138c2565b60408301905092915050565b5f602082019050919050565b5f61391c82613899565b61392681856138a3565b9350613931836138b3565b805f5b8381101561396157815161394888826138ef565b975061395383613906565b925050600181019050613934565b5085935050505092915050565b5f60029050919050565b5f81905092915050565b5f819050919050565b5f602082019050919050565b6139a08161396e565b6139aa8184613978565b92506139b582613982565b805f5b838110156139e55781516139cc87826136cc565b96506139d78361398b565b9250506001810190506139b8565b505050505050565b608082015f820151613a015f850182613997565b506020820151613a146040850182613997565b50505050565b5f61018083015f8301518482035f860152613a358282613473565b91505060208301518482036020860152613a4f8282613912565b91505060408301518482036040860152613a698282613912565b9150506060830151613a7e60608601826139ed565b506080830151613a9160e08601826138c2565b5060a0830151848203610120860152613aaa8282613473565b91505060c0830151848203610140860152613ac58282613473565b91505060e0830151848203610160860152613ae08282613517565b9150508091505092915050565b5f6020820190508181035f830152613b058184613a1a565b905092915050565b5f5f5f60608486031215613b2457613b23612a9f565b5b5f613b3186828701612afe565b9350506020613b4286828701613154565b9250506040613b5386828701612e9b565b9150509250925092565b613b66816136b4565b82525050565b5f604082019050613b7f5f830185613b5d565b8181036020830152613b918184613080565b90509392505050565b7f4e487b71000000000000000000000000000000000000000000000000000000005f52603260045260245ffd5b613bd081612ac6565b82525050565b5f602082019050613be95f830184613bc7565b92915050565b5f81519050613bfd8161313e565b92915050565b5f60208284031215613c1857613c17612a9f565b5b5f613c2584828501613bef565b91505092915050565b5f613c3882612ac6565b9050919050565b613c4881613c2e565b8114613c52575f5ffd5b50565b5f81519050613c6381613c3f565b92915050565b5f60208284031215613c7e57613c7d612a9f565b5b5f613c8b84828501613c55565b91505092915050565b5f613c9e82612ac6565b9050919050565b613cae81613c94565b8114613cb8575f5ffd5b50565b5f81519050613cc981613ca5565b92915050565b5f60208284031215613ce457613ce3612a9f565b5b5f613cf184828501613cbb565b91505092915050565b5f613d0482612ac6565b9050919050565b613d1481613cfa565b8114613d1e575f5ffd5b50565b5f81519050613d2f81613d0b565b92915050565b5f60208284031215613d4a57613d49612a9f565b5b5f613d5784828501613d21565b91505092915050565b5f60ff82169050919050565b613d7581613d60565b82525050565b613d8481612e76565b82525050565b5f604082019050613d9d5f830185613d6c565b613daa6020830184613d7b565b9392505050565b5f613dc3613dbe84613113565b612b84565b90508083825260208201905060208402830185811115613de657613de5612bc9565b5b835b81811015613e0f5780613dfb8882613bef565b845260208401935050602081019050613de8565b5050509392505050565b5f82601f830112613e2d57613e2c612b12565b5b8151613e3d848260208601613db1565b91505092915050565b5f60208284031215613e5b57613e5a612a9f565b5b5f82015167ffffffffffffffff811115613e7857613e77612aa3565b5b613e8484828501613e19565b91505092915050565b613e9681612d0f565b82525050565b5f602082019050613eaf5f830184613e8d565b92915050565b5f81519050613ec381612bcd565b92915050565b5f60208284031215613ede57613edd612a9f565b5b5f613eeb84828501613eb5565b91505092915050565b5f606082019050613f075f830186613e8d565b613f146020830185613d6c565b613f216040830184613d7b565b949350505050565b613f3281612f7c565b8114613f3c575f5ffd5b50565b5f81519050613f4d81613f29565b92915050565b5f60208284031215613f6857613f67612a9f565b5b5f613f7584828501613f3f565b91505092915050565b5f604082019050613f915f830185613d7b565b8181036020830152613fa38184612d4a565b90509392505050565b5f67ffffffffffffffff821115613fc657613fc5612b26565b5b602082029050602081019050919050565b5f81519050613fe581612e85565b92915050565b5f613ffd613ff884613fac565b612b84565b905080838252602082019050602084028301858111156140205761401f612bc9565b5b835b8181101561404957806140358882613fd7565b845260208401935050602081019050614022565b5050509392505050565b5f82601f83011261406757614066612b12565b5b8151614077848260208601613feb565b91505092915050565b5f6020828403121561409557614094612a9f565b5b5f82015167ffffffffffffffff8111156140b2576140b1612aa3565b5b6140be84828501614053565b91505092915050565b5f82825260208201905092915050565b5f6140e283856140c7565b93506140ef838584612dfa565b6140f883612b16565b840190509392505050565b5f6040820190506141165f830186613d7b565b81810360208301526141298184866140d7565b9050949350505050565b5f819050919050565b5f61415661415161414c84612e76565b614133565b6136b4565b9050919050565b6141668161413c565b82525050565b5f60608201905061417f5f830186613e8d565b61418c6020830185613d7b565b614199604083018461415d565b949350505050565b5f77ffffffffffffffffffffffffffffffffffffffffffffffff82169050919050565b6141cd816141a1565b81146141d7575f5ffd5b50565b5f815190506141e8816141c4565b92915050565b5f6020828403121561420357614202612a9f565b5b5f614210848285016141da565b91505092915050565b5f6020828403121561422e5761422d612a9f565b5b5f61423b84828501613fd7565b91505092915050565b7f4e487b71000000000000000000000000000000000000000000000000000000005f52601160045260245ffd5b5f61427b826136b4565b91507fffffffffffffffffffffffffffffffffffffffffffffffffffffffffffffffff82036142ad576142ac614244565b5b600182019050919050565b5f6142c282613d60565b915060ff82036142d5576142d4614244565b5b600182019050919050565b5f6040820190508181035f8301526142f98185876140d7565b9050614308602083018461415d565b949350505050565b5f5ffd5b61431d816136b4565b8114614327575f5ffd5b50565b5f8135905061433881614314565b92915050565b5f6040828403121561435357614352614310565b5b61435d6040612b84565b90505f61436c8482850161432a565b5f83015250602061437f8482850161432a565b60208301525092915050565b5f604082840312156143a05761439f612a9f565b5b5f6143ad8482850161433e565b91505092915050565b5f602082840312156143cb576143ca612a9f565b5b5f6143d884828501612be3565b91505092915050565b5f67ffffffffffffffff8211156143fb576143fa612b26565b5b602082029050919050565b5f8151905061441481614314565b92915050565b5f61442c614427846143e1565b612b84565b9050806020840283018581111561444657614445612bc9565b5b835b8181101561446f578061445b8882614406565b845260208401935050602081019050614448565b5050509392505050565b5f82601f83011261448d5761448c612b12565b5b600261449a84828561441a565b91505092915050565b5f608082840312156144b8576144b7614310565b5b6144c26040612b84565b90505f6144d184828501614479565b5f8301525060406144e484828501614479565b60208301525092915050565b5f6080828403121561450557614504612a9f565b5b5f614512848285016144a3565b91505092915050565b614524816136b4565b82525050565b5f6101008201905061453e5f83018b61451b565b61454b602083018a61451b565b614558604083018961451b565b614565606083018861451b565b614572608083018761451b565b61457f60a083018661451b565b61458c60c083018561451b565b61459960e083018461451b565b9998505050505050505050565b5f5f5f5f608085870312156145be576145bd612a9f565b5b5f6145cb87828801614406565b94505060206145dc87828801614406565b93505060406145ed87828801614406565b92505060606145fe87828801614406565b91505092959194509250565b5f614614826136b4565b915061461f836136b4565b925082820261462d816136b4565b9150828204841483151761464457614643614244565b5b5092915050565b5f604082840312156146605761465f614310565b5b61466a6040612b84565b90505f61467984828501614406565b5f83015250602061468c84828501614406565b60208301525092915050565b5f5f606083850312156146ae576146ad612a9f565b5b5f6146bb8582860161464b565b92505060406146cc85828601613bef565b9150509250929050565b5f6060820190506146e95f830186613e8d565b6146f66020830185613d7b565b6147036040830184613b5d565b949350505050565b7f4e487b71000000000000000000000000000000000000000000000000000000005f52601260045260245ffd5b5f5f6040838503121561474e5761474d612a9f565b5b5f61475b85828601614406565b925050602061476c85828601614406565b9150509250929050565b5f614780826136b4565b915061478b836136b4565b92508282039050818111156147a3576147a2614244565b5b92915050565b5f61ffff82169050919050565b5f6147c0826147a9565b915061ffff82036147d4576147d3614244565b5b60018201905091905056fea26469706673582212204e1d26b7c490d9272818d54c495a656af7d0e050712fb21c813055baf6cdec2864736f6c634300081c0033","linkReferences":{"lib/eigenlayer-middleware/src/unaudited/BN256G2.sol":{"BN256G2":[{"start":5602,"length":20}]}}},"methodIdentifiers":{"getBatchOperatorFromId(address,bytes32[])":"4d2b57fe","getBatchOperatorId(address,address[])":"31b36bd9","getCheckSignaturesIndices(address,uint32,bytes,bytes32[])":"4f739f74","getNonSignerStakesAndSignature(address,bytes,(uint256,uint256),address[],uint32)":"932a4caa","getOperatorState(address,bytes,uint32)":"3563b0d1","getOperatorState(address,bytes32,uint32)":"cefdc1d4","getQuorumBitmapsAtBlockNumber(address,bytes32[],uint32)":"5c155662"},"id":26}