{"abi":[{"type":"constructor","inputs":[{"name":"_registryCoordinator","type":"address","internalType":"contract ISlashingRegistryCoordinator"}],"stateMutability":"nonpayable"},{"type":"function","name":"BLOCK_STALE_MEASURE","inputs":[],"outputs":[{"name":"","type":"uint32","internalType":"uint32"}],"stateMutability":"view"},{"type":"function","name":"QUORUM_THRESHOLD","inputs":[],"outputs":[{"name":"","type":"uint256","internalType":"uint256"}],"stateMutability":"view"},{"type":"function","name":"THRESHOLD_DENOMINATOR","inputs":[],"outputs":[{"name":"","type":"uint256","internalType":"uint256"}],"stateMutability":"view"},{"type":"function","name":"blsApkRegistry","inputs":[],"outputs":[{"name":"","type":"address","internalType":"contract IBLSApkRegistry"}],"stateMutability":"view"},{"type":"function","name":"checkSignatures","inputs":[{"name":"msgHash","type":"bytes32","internalType":"bytes32"},{"name":"quorumNumbers","type":"bytes","internalType":"bytes"},{"name":"referenceBlockNumber","type":"uint32","internalType":"uint32"},{"name":"params","type":"tuple","internalType":"struct IBLSSignatureCheckerTypes.NonSignerStakesAndSignature","components":[{"name":"nonSignerQuorumBitmapIndices","type":"uint32[]","internalType":"uint32[]"},{"name":"nonSignerPubkeys","type":"tuple[]","internalType":"struct BN254.G1Point[]","components":[{"name":"X","type":"uint256","internalType":"uint256"},{"name":"Y","type":"uint256","internalType":"uint256"}]},{"name":"quorumApks","type":"tuple[]","internalType":"struct BN254.G1Point[]","components":[{"name":"X","type":"uint256","internalType":"uint256"},{"name":"Y","type":"uint256","internalType":"uint256"}]},{"name":"apkG2","type":"tuple","internalType":"struct BN254.G2Point","components":[{"name":"X","type":"uint256[2]","internalType":"uint256[2]"},{"name":"Y","type":"uint256[2]","internalType":"uint256[2]"}]},{"name":"sigma","type":"tuple","internalType":"struct BN254.G1Point","components":[{"name":"X","type":"uint256","internalType":"uint256"},{"name":"Y","type":"uint256","internalType":"uint256"}]},{"name":"quorumApkIndices","type":"uint32[]","internalType":"uint32[]"},{"name":"totalStakeIndices","type":"uint32[]","internalType":"uint32[]"},{"name":"nonSignerStakeIndices","type":"uint32[][]","internalType":"uint32[][]"}]}],"outputs":[{"name":"","type":"tuple","internalType":"struct IBLSSignatureCheckerTypes.QuorumStakeTotals","components":[{"name":"signedStakeForQuorum","type":"uint96[]","internalType":"uint96[]"},{"name":"totalStakeForQuorum","type":"uint96[]","internalType":"uint96[]"}]},{"name":"","type":"bytes32","internalType":"bytes32"}],"stateMutability":"view"},{"type":"function","name":"delegation","inputs":[],"outputs":[{"name":"","type":"address","internalType":"contract IDelegationManager"}],"stateMutability":"view"},{"type":"function","name":"increment","inputs":[{"name":"msgHash","type":"bytes32","internalType":"bytes32"},{"name":"quorumNumbers","type":"bytes","internalType":"bytes"},{"name":"referenceBlockNumber","type":"uint32","internalType":"uint32"},{"name":"params","type":"tuple","internalType":"struct IBLSSignatureCheckerTypes.NonSignerStakesAndSignature","components":[{"name":"nonSignerQuorumBitmapIndices","type":"uint32[]","internalType":"uint32[]"},{"name":"nonSignerPubkeys","type":"tuple[]","internalType":"struct BN254.G1Point[]","components":[{"name":"X","type":"uint256","internalType":"uint256"},{"name":"Y","type":"uint256","internalType":"uint256"}]},{"name":"quorumApks","type":"tuple[]","internalType":"struct BN254.G1Point[]","components":[{"name":"X","type":"uint256","internalType":"uint256"},{"name":"Y","type":"uint256","internalType":"uint256"}]},{"name":"apkG2","type":"tuple","internalType":"struct BN254.G2Point","components":[{"name":"X","type":"uint256[2]","internalType":"uint256[2]"},{"name":"Y","type":"uint256[2]","internalType":"uint256[2]"}]},{"name":"sigma","type":"tuple","internalType":"struct BN254.G1Point","components":[{"name":"X","type":"uint256","internalType":"uint256"},{"name":"Y","type":"uint256","internalType":"uint256"}]},{"name":"quorumApkIndices","type":"uint32[]","internalType":"uint32[]"},{"name":"totalStakeIndices","type":"uint32[]","internalType":"uint32[]"},{"name":"nonSignerStakeIndices","type":"uint32[][]","internalType":"uint32[][]"}]}],"outputs":[],"stateMutability":"nonpayable"},{"type":"function","name":"number","inputs":[],"outputs":[{"name":"","type":"uint256","internalType":"uint256"}],"stateMutability":"view"},{"type":"function","name":"registryCoordinator","inputs":[],"outputs":[{"name":"","type":"address","internalType":"contract ISlashingRegistryCoordinator"}],"stateMutability":"view"},{"type":"function","name":"stakeRegistry","inputs":[],"outputs":[{"name":"","type":"address","internalType":"contract IStakeRegistry"}],"stateMutability":"view"},{"type":"function","name":"trySignatureAndApkVerification","inputs":[{"name":"msgHash","type":"bytes32","internalType":"bytes32"},{"name":"apk","type":"tuple","internalType":"struct BN254.G1Point","components":[{"name":"X","type":"uint256","internalType":"uint256"},{"name":"Y","type":"uint256","internalType":"uint256"}]},{"name":"apkG2","type":"tuple","internalType":"struct BN254.G2Point","components":[{"name":"X","type":"uint256[2]","internalType":"uint256[2]"},{"name":"Y","type":"uint256[2]","internalType":"uint256[2]"}]},{"name":"sigma","type":"tuple","internalType":"struct BN254.G1Point","components":[{"name":"X","type":"uint256","internalType":"uint256"},{"name":"Y","type":"uint256","internalType":"uint256"}]}],"outputs":[{"name":"pairingSuccessful","type":"bool","internalType":"bool"},{"name":"siganatureIsValid","type":"bool","internalType":"bool"}],"stateMutability":"view"},{"type":"error","name":"BitmapValueTooLarge","inputs":[]},{"type":"error","name":"BytesArrayLengthTooLong","inputs":[]},{"type":"error","name":"BytesArrayNotOrdered","inputs":[]},{"type":"error","name":"ECAddFailed","inputs":[]},{"type":"error","name":"ECMulFailed","inputs":[]},{"type":"error","name":"ExpModFailed","inputs":[]},{"type":"error","name":"FutureBlockNumber","inputs":[]},{"type":"error","name":"InputArrayLengthMismatch","inputs":[]},{"type":"error","name":"InputEmptyQuorumNumbers","inputs":[]},{"type":"error","name":"InputNonSignerLengthMismatch","inputs":[]},{"type":"error","name":"InsufficientQuorumThreshold","inputs":[]},{"type":"error","name":"InvalidBLSPairingKey","inputs":[]},{"type":"error","name":"InvalidBLSSignature","inputs":[]},{"type":"error","name":"InvalidHash","inputs":[]},{"type":"error","name":"InvalidQuorumApkHash","inputs":[]},{"type":"error","name":"InvalidReferenceBlocknumber","inputs":[]},{"type":"error","name":"NonSignerPubkeysNotSorted","inputs":[]},{"type":"error","name":"OnlyRegistryCoordinatorOwner","inputs":[]},{"type":"error","name":"ScalarTooLarge","inputs":[]},{"type":"error","name":"StaleBlockNumber","inputs":[]}],"bytecode":{"object":"0x61010060405261012c60335f6101000a81548163ffffffff021916908363ffffffff1602179055506042603455606460355534801561003c575f5ffd5b506040516136af3803806136af833981810160405281019061005e91906102ed565b80808073ffffffffffffffffffffffffffffffffffffffff1660808173ffffffffffffffffffffffffffffffffffffffff16815250508073ffffffffffffffffffffffffffffffffffffffff1663683048356040518163ffffffff1660e01b8152600401602060405180830381865afa1580156100dd573d5f5f3e3d5ffd5b505050506040513d601f19601f820116820180604052508101906101019190610353565b73ffffffffffffffffffffffffffffffffffffffff1660a08173ffffffffffffffffffffffffffffffffffffffff16815250508073ffffffffffffffffffffffffffffffffffffffff16635df459466040518163ffffffff1660e01b8152600401602060405180830381865afa15801561017d573d5f5f3e3d5ffd5b505050506040513d601f19601f820116820180604052508101906101a191906103b9565b73ffffffffffffffffffffffffffffffffffffffff1660c08173ffffffffffffffffffffffffffffffffffffffff168152505060a05173ffffffffffffffffffffffffffffffffffffffff1663df5cf7236040518163ffffffff1660e01b8152600401602060405180830381865afa15801561021f573d5f5f3e3d5ffd5b505050506040513d601f19601f82011682018060405250810190610243919061041f565b73ffffffffffffffffffffffffffffffffffffffff1660e08173ffffffffffffffffffffffffffffffffffffffff168152505050505061044a565b5f5ffd5b5f73ffffffffffffffffffffffffffffffffffffffff82169050919050565b5f6102ab82610282565b9050919050565b5f6102bc826102a1565b9050919050565b6102cc816102b2565b81146102d6575f5ffd5b50565b5f815190506102e7816102c3565b92915050565b5f602082840312156103025761030161027e565b5b5f61030f848285016102d9565b91505092915050565b5f610322826102a1565b9050919050565b61033281610318565b811461033c575f5ffd5b50565b5f8151905061034d81610329565b92915050565b5f602082840312156103685761036761027e565b5b5f6103758482850161033f565b91505092915050565b5f610388826102a1565b9050919050565b6103988161037e565b81146103a2575f5ffd5b50565b5f815190506103b38161038f565b92915050565b5f602082840312156103ce576103cd61027e565b5b5f6103db848285016103a5565b91505092915050565b5f6103ee826102a1565b9050919050565b6103fe816103e4565b8114610408575f5ffd5b50565b5f81519050610419816103f5565b92915050565b5f602082840312156104345761043361027e565b5b5f6104418482850161040b565b91505092915050565b60805160a05160c05160e05161320f6104a05f395f61122d01525f818161037e0152610a3301525f81816103bd01528181610bb30152610d8d01525f81816103e10152818161070d015261088a015261320f5ff3fe608060405234801561000f575f5ffd5b50600436106100a7575f3560e01c80636d14a9871161006f5780636d14a987146101545780636efb4636146101725780638381f58a146101a357806385047a49146101c1578063df5cf723146101dd578063ef024458146101fb576100a7565b8063171f1d5b146100ab5780635df45946146100dc5780635e510b60146100fa5780635e8b3f2d146101185780636830483514610136575b5f5ffd5b6100c560048036038101906100c091906121d7565b610219565b6040516100d3929190612256565b60405180910390f35b6100e461037c565b6040516100f191906122f7565b60405180910390f35b6101026103a0565b60405161010f919061231f565b60405180910390f35b6101206103a6565b60405161012d9190612356565b60405180910390f35b61013e6103bb565b60405161014b919061238f565b60405180910390f35b61015c6103df565b60405161016991906123c8565b60405180910390f35b61018c60048036038101906101879190612834565b610403565b60405161019a9291906129f2565b60405180910390f35b6101ab610fdf565b6040516101b8919061231f565b60405180910390f35b6101db60048036038101906101d69190612834565b610fe5565b005b6101e561122b565b6040516101f29190612a40565b60405180910390f35b61020361124f565b604051610210919061231f565b60405180910390f35b5f5f5f7f30644e72e131a029b85045b68181585d2833e84879b9709143e1f593f000000187875f01518860200151885f01515f6002811061025d5761025c612a59565b5b6020020151895f015160016002811061027957610278612a59565b5b60200201518a602001515f6002811061029557610294612a59565b5b60200201518b602001516001600281106102b2576102b1612a59565b5b60200201518b5f01518c602001516040516020016102d899989796959493929190612ac6565b604051602081830303815290604052805190602001205f1c6102fa9190612b95565b905061036a610324610315838961125590919063ffffffff16565b8661132090919063ffffffff16565b61032c611410565b6103606103498561033b6114da565b61125590919063ffffffff16565b6103528c6114fe565b61132090919063ffffffff16565b886201d4c0611609565b80935081945050505094509492505050565b7f000000000000000000000000000000000000000000000000000000000000000081565b60345481565b60335f9054906101000a900463ffffffff1681565b7f000000000000000000000000000000000000000000000000000000000000000081565b7f000000000000000000000000000000000000000000000000000000000000000081565b61040b611e41565b5f5f8686905003610448576040517f1f0405a000000000000000000000000000000000000000000000000000000000815260040160405180910390fd5b8260400151518686905014801561046657508260a001515186869050145b801561047957508260c001515186869050145b801561048c57508260e001515186869050145b6104c2576040517f43714afd00000000000000000000000000000000000000000000000000000000815260040160405180910390fd5b825f01515183602001515114610504576040517f5f832f4100000000000000000000000000000000000000000000000000000000815260040160405180910390fd5b4363ffffffff168463ffffffff1610610549576040517f4b874f4500000000000000000000000000000000000000000000000000000000815260040160405180910390fd5b5f60405180604001604052805f81526020015f8152509050610569611e41565b8787905067ffffffffffffffff81111561058657610585611fd8565b5b6040519080825280602002602001820160405280156105b45781602001602082028036833780820191505090505b5081602001819052508787905067ffffffffffffffff8111156105da576105d9611fd8565b5b6040519080825280602002602001820160405280156106085781602001602082028036833780820191505090505b50815f0181905250610618611e5b565b85602001515167ffffffffffffffff81111561063757610636611fd8565b5b6040519080825280602002602001820160405280156106655781602001602082028036833780820191505090505b50815f018190525085602001515167ffffffffffffffff81111561068c5761068b611fd8565b5b6040519080825280602002602001820160405280156106ba5781602001602082028036833780820191505090505b5081602001819052505f61079d8a8a8080601f0160208091040260200160405190810160405280939291908181526020018383808284375f81840152601f19601f820116905080830192505050505050507f000000000000000000000000000000000000000000000000000000000000000073ffffffffffffffffffffffffffffffffffffffff16639aa1653d6040518163ffffffff1660e01b8152600401602060405180830381865afa158015610774573d5f5f3e3d5ffd5b505050506040513d601f19601f820116820180604052508101906107989190612bfb565b6118a9565b90505f5f90505b876020015151811015610a14576107d8886020015182815181106107cb576107ca612a59565b5b6020026020010151611900565b836020015182815181106107ef576107ee612a59565b5b6020026020010181815250505f81146108885782602001516001826108149190612c53565b8151811061082557610824612a59565b5b60200260200101515f1c8360200151828151811061084657610845612a59565b5b60200260200101515f1c11610887576040517fff71941400000000000000000000000000000000000000000000000000000000815260040160405180910390fd5b5b7f000000000000000000000000000000000000000000000000000000000000000073ffffffffffffffffffffffffffffffffffffffff166304ec6351846020015183815181106108db576108da612a59565b5b60200260200101518b8b5f015185815181106108fa576108f9612a59565b5b60200260200101516040518463ffffffff1660e01b815260040161092093929190612cb6565b602060405180830381865afa15801561093b573d5f5f3e3d5ffd5b505050506040513d601f19601f8201168201806040525081019061095f9190612d38565b77ffffffffffffffffffffffffffffffffffffffffffffffff16835f0151828151811061098f5761098e612a59565b5b602002602001018181525050610a056109f66109c984865f015185815181106109bb576109ba612a59565b5b602002602001015116611918565b8a6020015184815181106109e0576109df612a59565b5b602002602001015161195390919063ffffffff16565b8661132090919063ffffffff16565b945080806001019150506107a4565b5050610a1f83611a38565b92505f5f90505b89899050811015610f10577f000000000000000000000000000000000000000000000000000000000000000073ffffffffffffffffffffffffffffffffffffffff166368bccaac8b8b84818110610a8057610a7f612a59565b5b9050013560f81c60f81b60f81c8a8a60a001518581518110610aa557610aa4612a59565b5b60200260200101516040518463ffffffff1660e01b8152600401610acb93929190612d72565b602060405180830381865afa158015610ae6573d5f5f3e3d5ffd5b505050506040513d601f19601f82011682018060405250810190610b0a9190612dfc565b67ffffffffffffffff1916610b3c88604001518381518110610b2f57610b2e612a59565b5b6020026020010151611900565b67ffffffffffffffff191614610b7e576040517fe1310aed00000000000000000000000000000000000000000000000000000000815260040160405180910390fd5b610baf87604001518281518110610b9857610b97612a59565b5b60200260200101518561132090919063ffffffff16565b93507f000000000000000000000000000000000000000000000000000000000000000073ffffffffffffffffffffffffffffffffffffffff1663c8294c568b8b84818110610c0057610bff612a59565b5b9050013560f81c60f81b60f81c8a8a60c001518581518110610c2557610c24612a59565b5b60200260200101516040518463ffffffff1660e01b8152600401610c4b93929190612d72565b602060405180830381865afa158015610c66573d5f5f3e3d5ffd5b505050506040513d601f19601f82011682018060405250810190610c8a9190612e51565b83602001518281518110610ca157610ca0612a59565b5b60200260200101906bffffffffffffffffffffffff1690816bffffffffffffffffffffffff168152505082602001518181518110610ce257610ce1612a59565b5b6020026020010151835f01518281518110610d0057610cff612a59565b5b60200260200101906bffffffffffffffffffffffff1690816bffffffffffffffffffffffff16815250505f5f90505f5f90505b886020015151811015610f0157610d86845f01518281518110610d5957610d58612a59565b5b60200260200101518d8d86818110610d7457610d73612a59565b5b9050013560f81c60f81b60f81c611af0565b15610ef4577f000000000000000000000000000000000000000000000000000000000000000073ffffffffffffffffffffffffffffffffffffffff1663f2be94ae8d8d86818110610dda57610dd9612a59565b5b9050013560f81c60f81b60f81c8c87602001518581518110610dff57610dfe612a59565b5b60200260200101518d60e001518881518110610e1e57610e1d612a59565b5b60200260200101518781518110610e3857610e37612a59565b5b60200260200101516040518563ffffffff1660e01b8152600401610e5f9493929190612e7c565b602060405180830381865afa158015610e7a573d5f5f3e3d5ffd5b505050506040513d601f19601f82011682018060405250810190610e9e9190612e51565b855f01518481518110610eb457610eb3612a59565b5b60200260200101818151610ec89190612ebf565b9150906bffffffffffffffffffffffff1690816bffffffffffffffffffffffff16815250508160010191505b8080600101915050610d33565b50508080600101915050610a26565b505f5f610f278c868a606001518b60800151610219565b9150915081610f62576040517f67988d3300000000000000000000000000000000000000000000000000000000815260040160405180910390fd5b80610f99576040517fab1b236b00000000000000000000000000000000000000000000000000000000815260040160405180910390fd5b50505f878260200151604051602001610fb3929190612fe3565b604051602081830303815290604052805190602001209050828195509550505050509550959350505050565b60325481565b438263ffffffff1610611024576040517f252f8a0e00000000000000000000000000000000000000000000000000000000815260040160405180910390fd5b4363ffffffff1660335f9054906101000a900463ffffffff1683611048919061300a565b63ffffffff161015611086576040517f305c3e9300000000000000000000000000000000000000000000000000000000815260040160405180910390fd5b5f600260325460405160200161109c919061231f565b6040516020818303038152906040526040516110b89190613093565b602060405180830381855afa1580156110d3573d5f5f3e3d5ffd5b5050506040513d601f19601f820116820180604052508101906110f691906130bd565b9050808614611131576040517f0af806e000000000000000000000000000000000000000000000000000000000815260040160405180910390fd5b5f61113f8787878787610403565b5090505f5f90505b8686905081101561120a576034548260200151828151811061116c5761116b612a59565b5b60200260200101516bffffffffffffffffffffffff1661118c91906130e8565b603554835f015183815181106111a5576111a4612a59565b5b60200260200101516bffffffffffffffffffffffff166111c591906130e8565b10156111fd576040517f6d8605db00000000000000000000000000000000000000000000000000000000815260040160405180910390fd5b8080600101915050611147565b5060325f81548092919061121d90613129565b919050555050505050505050565b7f000000000000000000000000000000000000000000000000000000000000000081565b60355481565b61125d611e75565b611265611e8d565b835f0151815f6003811061127c5761127b612a59565b5b60200201818152505083602001518160016003811061129e5761129d612a59565b5b60200201818152505082816002600381106112bc576112bb612a59565b5b6020020181815250505f60408360608460076107d05a03fa9050805f81036112e057fe5b5080611318576040517f4633be3200000000000000000000000000000000000000000000000000000000815260040160405180910390fd5b505092915050565b611328611e75565b611330611eaf565b835f0151815f6004811061134757611346612a59565b5b60200201818152505083602001518160016004811061136957611368612a59565b5b602002018181525050825f01518160026004811061138a57611389612a59565b5b6020020181815250508260200151816003600481106113ac576113ab612a59565b5b6020020181815250505f60408360808460066107d05a03fa9050805f81036113d057fe5b5080611408576040517fd4b68fd700000000000000000000000000000000000000000000000000000000815260040160405180910390fd5b505092915050565b611418611ed1565b604051806040016040528060405180604001604052807f198e9393920d483a7260bfb731fb5d25f1aa493335a9e71297e485b7aef312c281526020017f1800deef121f1e76426a00665e5c4479674322d4f75edadd46debd5cd992f6ed815250815260200160405180604001604052807f275dc4a288d1afb3cbb1ac09187524c7db36395df7be3b99e673b13a075a65ec81526020017f1d9befcd05a5323e6da4d435f3b617cdb3af83285c2df711ef39c01571827f9d815250815250905090565b6114e2611e75565b6040518060400160405280600181526020016002815250905090565b611506611e75565b5f5f90505f5f90505f7f30644e72e131a029b85045b68181585d97816a916871ca8d3c208c16d87cfd47855f1c61153d9190612b95565b90505b6001156115e95761155081611b06565b80935081945050507f30644e72e131a029b85045b68181585d97816a916871ca8d3c208c16d87cfd478061158757611586612b68565b5b82830983036115af576040518060400160405280828152602001838152509350505050611604565b7f30644e72e131a029b85045b68181585d97816a916871ca8d3c208c16d87cfd47806115de576115dd612b68565b5b600182089050611540565b60405180604001604052805f81526020015f81525093505050505b919050565b5f5f5f60405180604001604052808981526020018781525090505f6040518060400160405280898152602001878152509050611643611ef7565b5f5f90505b6002811015611861575f60068261165f91906130e8565b905084826002811061167457611673612a59565b5b60200201515f0151835f836116899190613170565b600c811061169a57611699612a59565b5b6020020181815250508482600281106116b6576116b5612a59565b5b602002015160200151836001836116cd9190613170565b600c81106116de576116dd612a59565b5b6020020181815250508382600281106116fa576116f9612a59565b5b60200201515f01515f6002811061171457611713612a59565b5b6020020151836002836117279190613170565b600c811061173857611737612a59565b5b60200201818152505083826002811061175457611753612a59565b5b60200201515f015160016002811061176f5761176e612a59565b5b6020020151836003836117829190613170565b600c811061179357611792612a59565b5b6020020181815250508382600281106117af576117ae612a59565b5b6020020151602001515f600281106117ca576117c9612a59565b5b6020020151836004836117dd9190613170565b600c81106117ee576117ed612a59565b5b60200201818152505083826002811061180a57611809612a59565b5b60200201516020015160016002811061182657611825612a59565b5b6020020151836005836118399190613170565b600c811061184a57611849612a59565b5b602002018181525050508080600101915050611648565b5061186a611f1a565b5f6020826020600c028560088cfa9050805f835f6001811061188f5761188e612a59565b5b602002015114159650965050505050509550959350505050565b5f5f6118b484611bfb565b9050808360ff166001901b116118f6576040517fca95733300000000000000000000000000000000000000000000000000000000815260040160405180910390fd5b8091505092915050565b5f81515f52816020015160205260405f209050919050565b5f5f5f90505b5f83111561194a576001836119339190612c53565b831692508080611942906131b0565b91505061191e565b80915050919050565b61195b611e75565b6102008261ffff161061199a576040517fff89d4fa00000000000000000000000000000000000000000000000000000000815260040160405180910390fd5b60018261ffff16036119ae57829050611a32565b5f60405180604001604052805f81526020015f81525090505f8490505f600190505f5f90505b8161ffff168661ffff1610611a2a576001808260ff168861ffff16901c1661ffff1603611a0857611a058484611320565b93505b611a128384611320565b925060018261ffff16901b91508060010190506119d4565b839450505050505b92915050565b611a40611e75565b5f825f0151148015611a5557505f8260200151145b15611a765760405180604001604052805f81526020015f8152509050611aeb565b6040518060400160405280835f015181526020017f30644e72e131a029b85045b68181585d97816a916871ca8d3c208c16d87cfd478460200151611aba9190612b95565b7f30644e72e131a029b85045b68181585d97816a916871ca8d3c208c16d87cfd47611ae59190612c53565b81525090505b919050565b5f60018260ff1684901c16600114905092915050565b5f5f5f7f30644e72e131a029b85045b68181585d97816a916871ca8d3c208c16d87cfd4780611b3857611b37612b68565b5b60037f30644e72e131a029b85045b68181585d97816a916871ca8d3c208c16d87cfd4780611b6957611b68612b68565b5b867f30644e72e131a029b85045b68181585d97816a916871ca8d3c208c16d87cfd4780611b9957611b98612b68565b5b888909090890505f611bec827f0c19139cb84c680a6e14116da060561765e05aa45a1c72a34f082305b61f3f527f30644e72e131a029b85045b68181585d97816a916871ca8d3c208c16d87cfd47611d03565b90508181935093505050915091565b5f61010082511115611c39576040517ffb4a9c8e00000000000000000000000000000000000000000000000000000000815260040160405180910390fd5b5f825103611c49575f9050611cfe565b5f5f835f81518110611c5e57611c5d612a59565b5b602001015160f81c60f81b60f81c60ff166001901b91505f600190505b8451811015611cf757848181518110611c9757611c96612a59565b5b602001015160f81c60f81b60f81c60ff166001901b9150828211611ce7576040517f80c8834800000000000000000000000000000000000000000000000000000000815260040160405180910390fd5b8183179250806001019050611c7b565b5081925050505b919050565b5f5f611d0d611f1a565b611d15611f3c565b6020815f60068110611d2a57611d29612a59565b5b602002018181525050602081600160068110611d4957611d48612a59565b5b602002018181525050602081600260068110611d6857611d67612a59565b5b6020020181815250508681600360068110611d8657611d85612a59565b5b6020020181815250508581600460068110611da457611da3612a59565b5b6020020181815250508481600560068110611dc257611dc1612a59565b5b60200201818152505060208260c08360056107d05a03fa9250825f8103611de557fe5b5082611e1d576040517fd51edae300000000000000000000000000000000000000000000000000000000815260040160405180910390fd5b815f60018110611e3057611e2f612a59565b5b602002015193505050509392505050565b604051806040016040528060608152602001606081525090565b604051806040016040528060608152602001606081525090565b60405180604001604052805f81526020015f81525090565b6040518060600160405280600390602082028036833780820191505090505090565b6040518060800160405280600490602082028036833780820191505090505090565b6040518060400160405280611ee4611f5e565b8152602001611ef1611f5e565b81525090565b604051806101800160405280600c90602082028036833780820191505090505090565b6040518060200160405280600190602082028036833780820191505090505090565b6040518060c00160405280600690602082028036833780820191505090505090565b6040518060400160405280600290602082028036833780820191505090505090565b5f604051905090565b5f5ffd5b5f5ffd5b5f819050919050565b611fa381611f91565b8114611fad575f5ffd5b50565b5f81359050611fbe81611f9a565b92915050565b5f5ffd5b5f601f19601f8301169050919050565b7f4e487b71000000000000000000000000000000000000000000000000000000005f52604160045260245ffd5b61200e82611fc8565b810181811067ffffffffffffffff8211171561202d5761202c611fd8565b5b80604052505050565b5f61203f611f80565b905061204b8282612005565b919050565b5f5ffd5b5f819050919050565b61206681612054565b8114612070575f5ffd5b50565b5f813590506120818161205d565b92915050565b5f6040828403121561209c5761209b611fc4565b5b6120a66040612036565b90505f6120b584828501612073565b5f8301525060206120c884828501612073565b60208301525092915050565b5f5ffd5b5f67ffffffffffffffff8211156120f2576120f1611fd8565b5b602082029050919050565b5f5ffd5b5f61211361210e846120d8565b612036565b9050806020840283018581111561212d5761212c6120fd565b5b835b8181101561215657806121428882612073565b84526020840193505060208101905061212f565b5050509392505050565b5f82601f830112612174576121736120d4565b5b6002612181848285612101565b91505092915050565b5f6080828403121561219f5761219e611fc4565b5b6121a96040612036565b90505f6121b884828501612160565b5f8301525060406121cb84828501612160565b60208301525092915050565b5f5f5f5f61012085870312156121f0576121ef611f89565b5b5f6121fd87828801611fb0565b945050602061220e87828801612087565b935050606061221f8782880161218a565b92505060e061223087828801612087565b91505092959194509250565b5f8115159050919050565b6122508161223c565b82525050565b5f6040820190506122695f830185612247565b6122766020830184612247565b9392505050565b5f73ffffffffffffffffffffffffffffffffffffffff82169050919050565b5f819050919050565b5f6122bf6122ba6122b58461227d565b61229c565b61227d565b9050919050565b5f6122d0826122a5565b9050919050565b5f6122e1826122c6565b9050919050565b6122f1816122d7565b82525050565b5f60208201905061230a5f8301846122e8565b92915050565b61231981612054565b82525050565b5f6020820190506123325f830184612310565b92915050565b5f63ffffffff82169050919050565b61235081612338565b82525050565b5f6020820190506123695f830184612347565b92915050565b5f612379826122c6565b9050919050565b6123898161236f565b82525050565b5f6020820190506123a25f830184612380565b92915050565b5f6123b2826122c6565b9050919050565b6123c2816123a8565b82525050565b5f6020820190506123db5f8301846123b9565b92915050565b5f5ffd5b5f5f83601f8401126123fa576123f96120d4565b5b8235905067ffffffffffffffff811115612417576124166123e1565b5b602083019150836001820283011115612433576124326120fd565b5b9250929050565b61244381612338565b811461244d575f5ffd5b50565b5f8135905061245e8161243a565b92915050565b5f67ffffffffffffffff82111561247e5761247d611fd8565b5b602082029050602081019050919050565b5f6124a161249c84612464565b612036565b905080838252602082019050602084028301858111156124c4576124c36120fd565b5b835b818110156124ed57806124d98882612450565b8452602084019350506020810190506124c6565b5050509392505050565b5f82601f83011261250b5761250a6120d4565b5b813561251b84826020860161248f565b91505092915050565b5f67ffffffffffffffff82111561253e5761253d611fd8565b5b602082029050602081019050919050565b5f61256161255c84612524565b612036565b90508083825260208201905060408402830185811115612584576125836120fd565b5b835b818110156125ad57806125998882612087565b845260208401935050604081019050612586565b5050509392505050565b5f82601f8301126125cb576125ca6120d4565b5b81356125db84826020860161254f565b91505092915050565b5f67ffffffffffffffff8211156125fe576125fd611fd8565b5b602082029050602081019050919050565b5f61262161261c846125e4565b612036565b90508083825260208201905060208402830185811115612644576126436120fd565b5b835b8181101561268b57803567ffffffffffffffff811115612669576126686120d4565b5b80860161267689826124f7565b85526020850194505050602081019050612646565b5050509392505050565b5f82601f8301126126a9576126a86120d4565b5b81356126b984826020860161260f565b91505092915050565b5f61018082840312156126d8576126d7611fc4565b5b6126e3610100612036565b90505f82013567ffffffffffffffff81111561270257612701612050565b5b61270e848285016124f7565b5f83015250602082013567ffffffffffffffff81111561273157612730612050565b5b61273d848285016125b7565b602083015250604082013567ffffffffffffffff81111561276157612760612050565b5b61276d848285016125b7565b60408301525060606127818482850161218a565b60608301525060e061279584828501612087565b60808301525061012082013567ffffffffffffffff8111156127ba576127b9612050565b5b6127c6848285016124f7565b60a08301525061014082013567ffffffffffffffff8111156127eb576127ea612050565b5b6127f7848285016124f7565b60c08301525061016082013567ffffffffffffffff81111561281c5761281b612050565b5b61282884828501612695565b60e08301525092915050565b5f5f5f5f5f6080868803121561284d5761284c611f89565b5b5f61285a88828901611fb0565b955050602086013567ffffffffffffffff81111561287b5761287a611f8d565b5b612887888289016123e5565b9450945050604061289a88828901612450565b925050606086013567ffffffffffffffff8111156128bb576128ba611f8d565b5b6128c7888289016126c2565b9150509295509295909350565b5f81519050919050565b5f82825260208201905092915050565b5f819050602082019050919050565b5f6bffffffffffffffffffffffff82169050919050565b61291d816128fd565b82525050565b5f61292e8383612914565b60208301905092915050565b5f602082019050919050565b5f612950826128d4565b61295a81856128de565b9350612965836128ee565b805f5b8381101561299557815161297c8882612923565b97506129878361293a565b925050600181019050612968565b5085935050505092915050565b5f604083015f8301518482035f8601526129bc8282612946565b915050602083015184820360208601526129d68282612946565b9150508091505092915050565b6129ec81611f91565b82525050565b5f6040820190508181035f830152612a0a81856129a2565b9050612a1960208301846129e3565b9392505050565b5f612a2a826122c6565b9050919050565b612a3a81612a20565b82525050565b5f602082019050612a535f830184612a31565b92915050565b7f4e487b71000000000000000000000000000000000000000000000000000000005f52603260045260245ffd5b5f819050919050565b612aa0612a9b82611f91565b612a86565b82525050565b5f819050919050565b612ac0612abb82612054565b612aa6565b82525050565b5f612ad1828c612a8f565b602082019150612ae1828b612aaf565b602082019150612af1828a612aaf565b602082019150612b018289612aaf565b602082019150612b118288612aaf565b602082019150612b218287612aaf565b602082019150612b318286612aaf565b602082019150612b418285612aaf565b602082019150612b518284612aaf565b6020820191508190509a9950505050505050505050565b7f4e487b71000000000000000000000000000000000000000000000000000000005f52601260045260245ffd5b5f612b9f82612054565b9150612baa83612054565b925082612bba57612bb9612b68565b5b828206905092915050565b5f60ff82169050919050565b612bda81612bc5565b8114612be4575f5ffd5b50565b5f81519050612bf581612bd1565b92915050565b5f60208284031215612c1057612c0f611f89565b5b5f612c1d84828501612be7565b91505092915050565b7f4e487b71000000000000000000000000000000000000000000000000000000005f52601160045260245ffd5b5f612c5d82612054565b9150612c6883612054565b9250828203905081811115612c8057612c7f612c26565b5b92915050565b5f612ca0612c9b612c9684612338565b61229c565b612054565b9050919050565b612cb081612c86565b82525050565b5f606082019050612cc95f8301866129e3565b612cd66020830185612347565b612ce36040830184612ca7565b949350505050565b5f77ffffffffffffffffffffffffffffffffffffffffffffffff82169050919050565b612d1781612ceb565b8114612d21575f5ffd5b50565b5f81519050612d3281612d0e565b92915050565b5f60208284031215612d4d57612d4c611f89565b5b5f612d5a84828501612d24565b91505092915050565b612d6c81612bc5565b82525050565b5f606082019050612d855f830186612d63565b612d926020830185612347565b612d9f6040830184612ca7565b949350505050565b5f7fffffffffffffffffffffffffffffffffffffffffffffffff000000000000000082169050919050565b612ddb81612da7565b8114612de5575f5ffd5b50565b5f81519050612df681612dd2565b92915050565b5f60208284031215612e1157612e10611f89565b5b5f612e1e84828501612de8565b91505092915050565b612e30816128fd565b8114612e3a575f5ffd5b50565b5f81519050612e4b81612e27565b92915050565b5f60208284031215612e6657612e65611f89565b5b5f612e7384828501612e3d565b91505092915050565b5f608082019050612e8f5f830187612d63565b612e9c6020830186612347565b612ea960408301856129e3565b612eb66060830184612ca7565b95945050505050565b5f612ec9826128fd565b9150612ed4836128fd565b925082820390506bffffffffffffffffffffffff811115612ef857612ef7612c26565b5b92915050565b5f8160e01b9050919050565b5f612f1482612efe565b9050919050565b612f2c612f2782612338565b612f0a565b82525050565b5f81519050919050565b5f81905092915050565b5f819050602082019050919050565b612f5e81611f91565b82525050565b5f612f6f8383612f55565b60208301905092915050565b5f602082019050919050565b5f612f9182612f32565b612f9b8185612f3c565b9350612fa683612f46565b805f5b83811015612fd6578151612fbd8882612f64565b9750612fc883612f7b565b925050600181019050612fa9565b5085935050505092915050565b5f612fee8285612f1b565b600482019150612ffe8284612f87565b91508190509392505050565b5f61301482612338565b915061301f83612338565b9250828201905063ffffffff81111561303b5761303a612c26565b5b92915050565b5f81519050919050565b5f81905092915050565b8281835e5f83830152505050565b5f61306d82613041565b613077818561304b565b9350613087818560208601613055565b80840191505092915050565b5f61309e8284613063565b915081905092915050565b5f815190506130b781611f9a565b92915050565b5f602082840312156130d2576130d1611f89565b5b5f6130df848285016130a9565b91505092915050565b5f6130f282612054565b91506130fd83612054565b925082820261310b81612054565b9150828204841483151761312257613121612c26565b5b5092915050565b5f61313382612054565b91507fffffffffffffffffffffffffffffffffffffffffffffffffffffffffffffffff820361316557613164612c26565b5b600182019050919050565b5f61317a82612054565b915061318583612054565b925082820190508082111561319d5761319c612c26565b5b92915050565b5f61ffff82169050919050565b5f6131ba826131a3565b915061ffff82036131ce576131cd612c26565b5b60018201905091905056fea26469706673582212207d80a96ec44efa5c51139b37f0ba1382535f81e3e0a5c2216b2847c0a8c6c1f864736f6c634300081c0033","linkReferences":{}},"methodIdentifiers":{"BLOCK_STALE_MEASURE()":"5e8b3f2d","QUORUM_THRESHOLD()":"5e510b60","THRESHOLD_DENOMINATOR()":"ef024458","blsApkRegistry()":"5df45946","checkSignatures(bytes32,bytes,uint32,(uint32[],(uint256,uint256)[],(uint256,uint256)[],(uint256[2],uint256[2]),(uint256,uint256),uint32[],uint32[],uint32[][]))":"6efb4636","delegation()":"df5cf723","increment(bytes32,bytes,uint32,(uint32[],(uint256,uint256)[],(uint256,uint256)[],(uint256[2],uint256[2]),(uint256,uint256),uint32[],uint32[],uint32[][]))":"85047a49","number()":"8381f58a","registryCoordinator()":"6d14a987","stakeRegistry()":"68304835","trySignatureAndApkVerification(bytes32,(uint256,uint256),(uint256[2],uint256[2]),(uint256,uint256))":"171f1d5b"},"id":51}